:020000022000DC
:10600000C89E0020E5BF0200ED4D040015C002004F
:1060100015C0020015C0020015C0020000000000FB
:10602000000000000000000000000000E5BD0200CC
:1060300015C00200000000009DBD0200AF3B04003F
:10604000A5BF0200C5B70300A5BF0200A5BF02009F
:10605000A5BF0200A5BF0200A5BF0200A5BF0200A8
:10606000A5BF0200A5BF0200A5BF0200A5BF020098
:10607000A5BF0200A5BF0200A5BF0200A5BF020088
:10608000A5BF0200A5BF0200A5BF0200A5BF020078
:10609000A5BF0200A5BF0200A5BF0200A5BF020068
:1060A000A5BF0200A5BF0200A5BF0200A5BF020058
:1060B000A5BF0200A5BF0200A5BF0200A5BF020048
:1060C000A5BF0200A5BF0200A5BF0200A5BF020038
:1060D000A5BF0200A5BF0200A5BF0200A5BF020028
:1060E000A5BF0200A5BF0200A5BF0200A5BF020018
:1060F000A5BF0200A5BF0200A5BF0200A5BF020008
:1061000053B94AB9002908BF00281CBF4FF0FF311E
:106110004FF0FF3000F078B9ADF1080C6DE904CE16
:1061200000F006F8DDF804E0DDE9022304B0704772
:106130002DE9F047089D0E4604468E46002B4CD1B3
:106140008A42944667D9B2FA82F252B101FA02F356
:10615000C2F1200120FA01F10CFA02FC41EA030E1F
:1061600094404FEA1C48210CBEFBF8F61FFA8CF74E
:1061700008FB16E341EA034306FB07F199420AD9FB
:106180001CEB030306F1FF3080F01E81994240F2C0
:106190001B81023E63445B1AA4B2B3FBF8F008FB18
:1061A000103344EA034400FB07F7A7420AD91CEB6B
:1061B000040400F1FF3380F00981A74240F2068118
:1061C00064440238E41B40EA064000211DB1D4407B
:1061D0000023C5E90043BDE8F0878B4208D9002DB4
:1061E00000F0EF800021C5E900060846BDE8F08711
:1061F000B3FA83F1002949D1B34202D3824200F2BB
:10620000FF80841A66EB030301209E46002DE2D036
:10621000C5E9004EDFE702B9FFDEB2FA82F2002ADA
:1062200040F08E80A1EB0C064FEA1C471FFA8CF35E
:106230000121B6FBF7FE07FB1E60260C46EA00466E
:1062400003FB0EF0B04208D91CEB06060EF1FF3836
:1062500002D2B04200F2D080C646361AA4B2B6FBD3
:10626000F7F007FB106644EA064400FB03F3A34281
:1062700008D91CEB040400F1FF3602D2A34200F25D
:10628000B8803046E41A40EA0E409FE7C1F120078B
:1062900022FA07F48B40234306FA01FC26FA07F49E
:1062A00020FA07F646EA0C064FEA134900FA01F80D
:1062B000B4FBF9FE300C1FFA83FC09FB1E4440EAD4
:1062C00004440EFB0CF0A04202FA01F20AD91C1998
:1062D0000EF1FF3A80F08B80A04240F28880AEF150
:1062E000020E1C44241AB6B2B4FBF9F009FB1044A8
:1062F00046EA044400FB0CFCA44507D91C1900F134
:10630000FF3670D2A4456ED902381C4440EA0E40D4
:10631000A0FB02E6A4EB0C04B442F446B14659D308
:1063200056D0002D6ED0B8EB0C0364EB0904CB40C3
:1063300004FA07F71F43CC40C5E9007400214AE77F
:10634000C2F1200024FA00F10CFA02FC06FA02F372
:1063500026FA00F04FEA1C4741EA0306B0FBF7F1CA
:106360001FFA8CF307FB110E300C40EA0E4001FBC4
:1063700003FE864504FA02F408D91CEB000001F183
:10638000FF3832D2864530D902396044A0EB0E0086
:10639000B6B2B0FBF7FE07FB1E0046EA00460EFB56
:1063A00003F0B04209D91CEB06060EF1FF3818D2F3
:1063B000B04216D9AEF1020E6644361A4EEA0141D9
:1063C00037E72946284606E70646E4E61846F9E692
:1063D000F045A6D2BEEB020C66EB030301389946EA
:1063E0009FE7C646E9E7304690E74146CEE7D64606
:1063F00078E76444023845E7AEF1020E66442CE7C4
:10640000084603E72946E6E6704700BF00000000A3
:1064100073B53E4DD5F81C31996811F001011FD1BB
:1064200001AA40F6034006F017FE044600286AD190
:10643000019B9B681B7883B905F1940318461EF0F5
:10644000CAFFBFF35B8F00F0050053E8002F43E85D
:1064500000010029F9D1BFF35B8F019818F018F8FB
:1064600001AA002141F2030006F0F6FD04460028CF
:1064700049D1019B26489968082201311EF0E9FDA7
:10648000019818F005F8214601AA41F2010006F032
:10649000E3FD0446002836D1019883685A7885F8D0
:1064A0003420D9789A7842EA0122EA861A7985F866
:1064B0003520197ADA7942EA01222A875A799B79BA
:1064C00042EA03236B8717F0E3FF214601AA41F25A
:1064D000020006F0C1FD0446A8B9019B0D48996869
:1064E000402201311EF0B5FD95F86630019843F069
:1064F000060385F8663017F0CBFF95F840305A0652
:106500000AD46FF01204204602B070BD00000020D3
:106510003C00002044000020214601AA42F2030072
:1065200006F09AFD04460028EDD1019BB248996817
:10653000082201311EF08DFD019817F0A9FF2146B8
:1065400001AA42F2020006F087FD04460028DAD1D3
:10655000019B9B68B3F80120A5F8C42091B221B13A
:10656000DA78A648114622F05CFA019817F090FFFD
:1065700095F8406016F0200600F01A8195F860301A
:106580001B0712D501AA002142F21C0006F064FD8F
:1065900004460028B7D101988368D3F80120D3F8C6
:1065A0000530C5E9282317F073FF95F898309E064B
:1065B00023D50DF1020168461FF0A2F80446002819
:1065C000A1D1042142F2240006F0EAFC064600288C
:1065D00000F0F5800421083021F0CBFBBDF800303D
:1065E0000380BDF8023043802246314642F2240047
:1065F00006F032FD0446002885D195F898305C06F7
:1066000010D501AA002142F22A0006F025FD044619
:1066100000287FF478AF019883685B7885F8E030D4
:1066200017F036FF082142F2010006F0B9FC0446DB
:10663000002800F0C4800821084421F09AFB95F856
:10664000981011F0400F024640F2022308BF0323C6
:1066500088074CBF43F02C0043F00C008B0695F8E4
:10666000993048BF40F0400013F0090F95F86630AC
:1066700018BF40F4006003F00603CE0748BF40F0A7
:106680001000062B08BF40F4C07000211EF064FF0C
:106690002146002242F2010006F0DEFC04460028FA
:1066A0007FF431AF95F8403098061ED4B5F8C41089
:1066B000D9B901AA41F2050006F0CEFC0446002833
:1066C0007FF421AFB5F8C43063B9019B9B685A7859
:1066D000997842EA0122A5F8C4209A8847481146D1
:1066E00022F09FF9019817F0D3FE082140F60140EF
:1066F00006F056FC0446002861D00821084421F029
:1067000038FB95F89830D90702466DD538A1D1E904
:1067100000011EF021FF2146002240F6014006F054
:106720009BFC044600287FF4EEAE014601AA4FF61A
:10673000014006F091FC044648BB019817F0A8FE02
:10674000214601AA4FF6024006F086FC0446F0B945
:10675000019B2B489968022201311EF07AFC0198B6
:1067600017F096FE95F885305B0710D501AA2146F3
:106770004FF6034006F070FC48B9019B2148996828
:10678000012211441EF065FC019817F081FE08F00B
:1067900045F9044600287FF4B6AEEB79002B3FF4B0
:1067A000B2AE042118481EF01FFE07F075F8AAE6E5
:1067B000022140F66D4006F0F3FB044610B96FF07D
:1067C0003604A0E60221083021F0D3FA0123037039
:1067D00046702146324640F66D4006F03DFC0446C8
:1067E00000283FF4CBAE8EE608484FF0005190E70A
:1067F000908800020080002098000020C80000203F
:1068000085000020840000209400002010880002F1
:106810002DE9F041D0E90B35866A5C193034A64287
:106820008846174618D81C4DA3FB050118A3D3E9C9
:106830000023FFF765FCA41B20F07F40C8F8000090
:1068400013A3D3E90023A4FB0501FFF759FC20F0B3
:106850007F403860BDE8F0810F4C0DA3D3E90023E1
:10686000A6FB0401FFF74CFC05F1300120F07F404E
:10687000C8F8000006A3D3E90023A1FB0401FFF739
:106880003FFC20F07F403860BDE8F081AFF300802E
:106890008D49FD1A0700000000CA9A3B0000000065
:1068A0002DE9F04FAD4C94F84E608FB006F0010624
:1068B000002800F04A81B6BB94F82D2094F83930B6
:1068C00094F8290004EB820204EB8303FF2100F01B
:1068D0000300D2F83080D3F83C9084F82A1014F0EA
:1068E00083FB94F84E00470700F11B81B8F1000FBD
:1068F00011D09A4841460FF077FA98F800305D06BB
:1069000005D506210AF032FF002800F0E381934804
:1069100049460FF069FA98F8003013F00E0F40F076
:10692000D380636A23B10C2630460FB0BDE8F08FE8
:106930000EF0C2FB8246002800F0DB810EF0C8FB9F
:106940008346002800F0DA810FF0A6FF05460028F4
:1069500000F0D181806F4FF6FF73AB8505F11C030A
:10696000002800F0C28105F16C0205F168010B936B
:106970000AF008FFB5F8642095F84010C5F83CA16E
:1069800022F4EF6222F0070242F4887242F0010220
:10699000A5F8642095F83D2002F03F0262F07F02E6
:1069A00085F83D2095F8322122F0030285F8322146
:1069B00095F87E2022F01F0285F87E20684A2A661C
:1069C000684AC5F8282100274FF01B1267F3000121
:1069D000EA65062285F84010C5E9137785F83F700F
:1069E0006F866F636F65A5F8C870A5F8CC70C5F8A1
:1069F0000C71A5F81071A5F82471C5F82C71A5F8D3
:106A0000307185F83B71AF67A5F87C70A5F85C71B3
:106A1000A5F8C42095F85E21A5F87C7122F0070244
:106A200085F85E21B5F8DC20C5F8E47002F0FC02C0
:106A3000A5F8DC2095F87E21A5F8E87067F304122C
:106A400085F87E2195F8A62185F8EA7067F3C302E0
:106A500085F8A621A5F8A471A5F8B07110F080FA08
:106A6000A5F8D60010F082FAD5F8B4113E4AA5F880
:106A7000D8000A40C5F8B42110F07EFA95F8B82184
:106A800060F3020285F8B82110F07CFA0B9B636278
:106A9000C4E911AB95F8B831C5F8BC7160F3C50312
:106AA00085F8B83195F82030ED6167F30003C5E94A
:106AB0007277C5E97077C5E9057785F8203015F05C
:106AC000BBFA002840F0088194F828300121C3F374
:106AD00042030DF133008DF833300AF0D5FF002862
:106AE00000F09E8098F8003003F00F03022B00F1B5
:106AF000FF313BD0012B00F0F38099F801001030FA
:106B0000C000002B40F0DE8098F80130103300EB1D
:106B1000C300DB0000F54D7003F59A7303FB010120
:106B20002FE0C0F3C000324604F14F0114F0C8FB5F
:106B3000FF2884F82A003FF4D9AE304614F06EFAEC
:106B4000B8F1000F7FF4D5AEE5E6002E3FF4EBAED2
:106B50000FB0BDE8F04F0EF013BF00BFE8430020B8
:106B6000480148017F4101000000FFF698F801301C
:106B70001033DB0003FB00F000F5AA70642303FB75
:106B8000010194F820306248E461002565F30003B8
:106B900084F8203031232360A1FB00015AA3D3E9FC
:106BA0000023C4E90555C4E90155FFF7A9FAB4F873
:106BB0004C90E0600CF074F80746B9F1000F08D172
:106BC00098F8005005F00F05A5F10105B5FA85F517
:106BD0006D0994F82800E36865F3000010F00105E2
:106BE00084F8280023D000204A4ADFF82C9104932F
:106BF00002250DF13408019305920321CDE902002D
:106C000006943B460090CDF82080CDF81C902A4693
:106C10000D950BF079FF41460EF004FB00283CD0A7
:106C2000636A002B3FF47FAE0EF068FE7BE63B4AC2
:106C30003B48049303F24713A9FB00010694029515
:106C40001360912303FB0911334B0793314B0593D9
:106C50004FF6FF7309924FF0020903930DF13408C8
:106C600029A3D3E90023CDF83490CDF82080FFF795
:106C700047FA3B46CDE900504A46284603210BF02F
:106C8000EDFE41460EF0CEFA0028C9D194F84E3000
:106C900043F0010384F84E3046E6224A05924AF258
:106CA000D8320092CDE90300CDE90100CDF81C9067
:106CB000CDF8208006943B46012203210D950BF070
:106CC00023FFDEE7062B3FF41FAF4FF4DA734FF4D8
:106CD0001B7023E7122627E60EF010FE032623E69C
:106CE0004FF4F2734FF47F7018E705F17000A86756
:106CF00039E6072618E658460EF0F0F950460EF031
:106D0000E1F9072610E600BF8D49FD1A07000000D3
:106D100000CA9A3BDD56030075430300404400203F
:106D2000002AE784C15503002DE9F04FC44D2B68BC
:106D30008BB004460F469046002B00F01282638E03
:106D4000E68E1E4494F812313E4413F00703B6B2A7
:106D500040F09F81B4F8EC90A6EB09021FFA82FB89
:106D6000120400F1F98194F93D20002AC0F2348127
:106D700094F8E83084F8E93094F87C2194F87D3177
:106D800094F8101184F81111934206D094F87E31D2
:106D900003F00703052B00F03A822B68A34204BFDF
:106DA00000232B60D4F80C51002D00F0638128687B
:106DB000002800F05F81B4F81431B4F82EC04268A6
:106DC000C4F80C216345B4F81621B4F8181100F08A
:106DD0001781B4F82CC0EB8315232B710023A5F881
:106DE00006C02A8469842B7729460EF07DF90EF0BF
:106DF00085F92368002BC0F2F780E08DB4F81451B8
:106E000010FB0BF080B2B0FBF5F115FB01F39BB268
:106E100098421FFA81FAC0F0CE8005FB110140F2C2
:106E2000E243884889B203FB01F1A1FB000182A380
:106E3000D3E90023FFF764F9A8EB0008618E94F909
:106E40003D30A9EB0609D1440F444F446786002B1F
:106E500040F2E24707FB05F6C0F285817A4A7B499A
:106E60007B4840F6F6131BF01DFD404080F311886F
:106E70004FF0030002DF0027B346764AB4F818311A
:106E80007548B4F8161121863244B2FBF6F2A4F824
:106E9000CA2042F2107202FB03633044013BB0FB94
:106EA000F6F0B3FBF6F6B4F81431E38583B2881D2F
:106EB0008342A4F8C660A4F8D23002DD5B1A063B18
:106EC0009BB2A4F8CE3094F812311B0744BF0023C4
:106ED000A4F8C8300221012017F024F80022022172
:106EE000814601200AF09EFC5C494FF4EA7220467C
:106EF0000AF028FC00F1030A5FFA8AFA584B009462
:106F00005246012100200BF089FE30F002030CD024
:106F10004D4A54494E4840F625231BF0C3FC4040DF
:106F200080F311884FF0030002DF464EABFB066B87
:106F300041A3D3E9002330465946FFF7E1F808940E
:106F400020F07F4506944848E3680493A5FB0001C0
:106F5000072303FB0511454B0793454B0593301A57
:106F60004FF6FE736BEB010103934FF47A7200232B
:106F7000FFF7C6F84346CDE901500097524601217C
:106F800000200BF0C1FD30F002030CD02E4A354931
:106F90002F4840F63F231BF085FC404080F31188CA
:106FA0004FF0030002DFB9F1000F40F0278148469F
:106FB0000BB0BDE8F08F1B1A224940F2E24003FB00
:106FC00000F0A0FB01011CA3D3E90023FFF798F810
:106FD00020F07F40804431E794F8DD20002A3FF420
:106FE000C7AE84F8DD30C7E6D4E9012123F00043C1
:106FF00091422CBF884490442360A8EB0308FCE630
:10700000B4F830C094457FF4E4AE40F2E24C0CFB9F
:1070100003FE42F2107C0CFB01EC0CF1FF3CBCFBCC
:10702000FEFCB4F8C6E01FFA8CFCE6457FF4D1AE56
:1070300001232B71D8E600BF8D49FD1A070000001F
:10704000844D002000CA9A3BACA70400C8A40400E9
:1070500068A40400FF5962027FC3C9016044002094
:10706000F16003008CA804008D49FD1A99600300AB
:10707000D1A40300764A7749774840F67A131BF08B
:1070800011FC404080F311884FF0030002DF2868B4
:1070900091E601200EF038F80746002800F0C9807C
:1070A0006E480AF019FB0546002800F0C2800EF079
:1070B00049F82B793A68D4F80C11516043F0030376
:1070C000C4F80C7100212B710C236B71E97194F8D9
:1070D00020312B72238ED4F81C211E44604BA3FB5D
:1070E0000232B4F81431A5F80B30920AB4F8163114
:1070F000A5F80920A5F80D3094F81221B4F818313C
:10710000A5F80F300636D4F8BC31B6B261F30202EE
:10711000A4F8EC6084F81221A5F81160002B7CD053
:1071200094F85E21900778D494F8B721D10774D4ED
:10713000D4F8C821934204BF1A68C4F8C821D4F80F
:10714000C021002A6CD11A682A601D602B68C4E92E
:1071500070550BB9C4F8CC516FF043000BB0BDE8CB
:10716000F08F2860EBE5626CE36C02FB1B33E36499
:1071700014F0B4FF054694F8DC00C0F3820014F06C
:10718000AFFF054406FB05F5364B94F8202105F5C5
:10719000742505F23F25A3FB0535AD0C07FB02F274
:1071A000E36C626505FB0AF072080344963A934269
:1071B00028BF13466564A6EB050B2B4DC4E91223CB
:1071C0000023C4F8E430A0FB05011FA3D3E900238A
:1071D000FEF796FF2249A8EB0008D4F81C01A1FB9A
:1071E0000030800A07FB00F017A3D3E90023A0FBBF
:1071F0000501FEF785FF20F07F473EE6012210469D
:1072000002210AF00FFB00200BB0BDE8F08F002335
:1072100084F87D21A4F8CC30BFE5D4F8C0216AB150
:10722000D4F8C4311A682A601D602B68C4F8C451B0
:107230008FE76FF036000BB0BDE8F08F2B60C4E92C
:107240006F55C4F8C45184E78D49FD1A070000004A
:10725000ACA7040078A8040068A40400084E00202D
:107260005917B7D183DE1B4300CA9A3B00000000C8
:107270002DE9F04F95B01D460B902846136850F845
:107280000C8B1F680C4692462E31032205F108092B
:107290001DF0DFFE05F11C06042204F12A01484618
:1072A0001DF0D7FE052204F13A0130461DF0D1FE53
:1072B000304605210AF0E8FB95F8213000F03F0048
:1072C00060F30503012885F821300AD994F83F209E
:1072D00002F01F03053BC2F304010B2B85F82210BB
:1072E00002D915B0BDE8F08FDAF8003000219960BE
:1072F000A68E6E8294F8371094F8363043EA012354
:10730000AB8298F8DC30520962F38403628E88F80D
:10731000DC300D9214F0E2FE0C9098F8DC00C0F323
:10732000820014F0DDFE0C9BC34AA98A40F2E24BB6
:10733000B6B20BFB06F6184406FB00F0BF4B00F597
:10734000742000F23F20A3FB003094F831300BFB97
:1073500003F3EB637308800C963BA862EB62238F08
:10736000ADF83A3018463244B54BB2FBF6F2A8F805
:10737000CA2082B242F2107000FB02623344013A2A
:10738000881DB2FBF6F2B3FBF6F3A8F8C6209AB25A
:107390008242A8F8D22002DD521A063A92B2494639
:1073A000A8F8CE2008F1E00004221DF052FE237F51
:1073B00004F11E0BC3F380135946062212A8119341
:1073C0001DF047FE237F4FF48072A28397F82A00B6
:1073D0009AF81290C3F340120F920C9214F006F92F
:1073E0000146062204F12B00002940F0EC801DF03C
:1073F0005BFE04F11F02B9F1FF0F04F125031092A7
:1074000000F0EA8059464846109313F07DFB109B2C
:107410001846A37F023312A9A37706221DF019FE96
:1074200098F8DC306A8A6286AA8AA286C3F382034D
:10743000BDF83A2084F83830E28640460FF038FA3A
:1074400021462882E080DAF804400B980DF04CFECB
:107450002B8AE380182323710C9B2068002B00F0FB
:10746000B78095F821302A8943F0400385F8213010
:107470006B8953406B840123237721460DF034FE42
:107480000DF03CFE95F84900012100F0070014F0D2
:107490002BFD83466B484FF0000931230BF252411C
:1074A000C8F80030C8E9019961A3D3E90023A1FB22
:1074B0000001FEF725FEAB6ADAF80C40F61A0D9BC8
:1074C00040F2E24101FB034420F07F4004F28634A5
:1074D000A4EB0B034A460221C8F80C0001200B93D1
:1074E0000AF0A0F938460EF007FC821C564B0097B4
:1074F000D2B2484601210BF091FB012800F08280B6
:1075000097F82830DB0775D440460FF0D1F9DFF843
:107510003491A6FB094646A3D3E90023054631462C
:107520002046FEF7EDFDDAF80830CDF81880A3F11B
:10753000310A464B0793464B05934FF4B6730893B5
:10754000D8F80C3020F07F4742484FF0000BCDE9CF
:1075500003B3A7FB00010723201A03FB071166EB07
:1075600001014FF47A720023FEF7CAFD0B9BCDE9AF
:107570000170A3FB09012EA3D3E90023FEF7C0FD90
:10758000033520F07F40EDB2009053462A4601219A
:1075900058460BF0B9FA30F002030CD02E4A2F49AE
:1075A0002F4840F26D131BF07DF9404080F31188A5
:1075B0004FF0030002DF0122022110460AF032F9E7
:1075C00015B0BDE8F08F04F124011DF042FD10E775
:1075D0009DF83C30237750E71846062200211DF025
:1075E00063FD9DF844301098A37712A906221DF080
:1075F00030FD15E7002301220093184611460BF0D9
:107600000DFB81E70DF04CFE87423FF479AF124A43
:107610001449134840F2FD131BF044F9404080F335
:1076200011884FF0030002DF6AE700BFAFF300806C
:107630008D49FD1A07000000FF59620283DE1B43DB
:107640007FC3C90100CA9A3B95A4030065A4030047
:10765000D1A403008D49FD1AC0A904008CA8040020
:1076600068A4040018AA04002DE9F04F8FB0DFF8D9
:10767000D8800A900DF137010DF136000DF0ACFD08
:10768000324F9DF836A09DF837B00BF009FBD8F8C3
:107690000040A4FB07542AA3D3E9002381462146D6
:1076A0002846FEF72DFD0A9B0B90D8F804000693A0
:1076B000274B0593002622A3D3E90023A0FB070153
:1076C000CDE90766FEF71CFD0B9B20F07F40CDE95E
:1076D0000360204823F07F47A7FB00010723281AF7
:1076E00003FB071164EB01014FF47A720023FEF7EC
:1076F00007FD0096CDE901704B465A4603215046DE
:107700000BF002FA30F0020416D1134A134800239A
:107710001AF0A0F968B19DF837209DF83600009462
:10772000234603210BF07AFA6FF03B000FB0BDE85F
:10773000F08FD8F80C00F9E76FF04700F6E700BFCC
:107740008D49FD1A07000000E057002000CA9A3B4F
:1077500085F003008D49FD1A447B0B00F057002093
:1077600038B50F4D04460BF09BFAA9680BF09AFA56
:107770006968B0FBF4F404440A4807A3D3E9002382
:10778000A1FB0001FEF7BCFC20F07F40844294BFC7
:107790000020012038BD00BF8D49FD1A0700000000
:1077A000E057002000CA9A3B07B521F014FA4FF4C5
:1077B0007A72A0FB020302FB0133C00B40EA434094
:1077C000064B4FF40042186000230548CDE9002322
:1077D0001AF034FC002003B05DF804FB202A0020DE
:1077E000C80B00200949BFF35B8F51E8003F43F00D
:1077F000010241E800200028F7D1BFF35B8FDB07CF
:1078000003D40348083920F0CEBF7047300200206F
:107810007829002008B5044B187800F0A1FABDE8DB
:1078200008401AF01BBD00BFC27C0020044B1A7830
:10783000824202D01870FFF7EDBF0020704700BFF2
:10784000C27C002008B521F0C6F94FF47A72A0FB83
:10785000020302FB0133C00B40EA4340034B1860B4
:10786000BDE808400020FFF7E1BF00BF202A00204C
:1078700008B521F0B0F94FF47A72A0FB020302FBC5
:107880000133C00B40EA4340064B1B68C01A47F265
:107890003053984204DDBDE808400120FFF7C6BF21
:1078A00008BD00BF202A002030B5164C89B0002248
:1078B000002301A9204619F0DBFB08B109B030BD57
:1078C000039DDDE9010100F069F8B5FA85F56D0960
:1078D00004908DF8145021F07EF94FF47A72A0FBD9
:1078E000020302FB0131C00B40EA4140C90BCDE964
:1078F000060108AB13E90F0000F03EFA1AF0AEFCE7
:10790000D5E700BF340D00201FB583F00103CDE99A
:10791000011203930D4801A90022002319F056FB20
:10792000BFF35B8F0A4951E8003F43F0010241E891
:1079300000200028F7D1BFF35B8FDB0703D4054895
:10794000083920F030FF05B05DF804FB340D00204D
:107950002C2A00207829002038B519F08BF904462C
:1079600080B10B4B0B4A0025C3E901251D608368DC
:1079700009491B689847A3689B6833B1204698471C
:10798000284638BD6FF01500FBE71846F9E700BF41
:10799000242A0020A978020009790200062303FBAB
:1079A0000011024B53F82100704700BF4C930400B4
:1079B000094A52F82030013342F82030074A0123A7
:1079C000834010780343DBB21370054A507853703C
:1079D000181A18BF01207047302A0020C37C0020ED
:1079E0006D0A00200D4A52F82030002B12DD013BB9
:1079F00042F820300A4A2BB901238340107820EA4C
:107A000003001070074B107859785870401A18BF4F
:107A1000012070476FF01500704700BF302A00202A
:107A2000C37C00206D0A00200449054B09785A7870
:107A300008435870801A18BF01207047C37C00208B
:107A40006D0A0020044A054B50781B785370181AB1
:107A500018BF0120704700BF6D0A0020C37C0020C2
:107A6000A0F1E003072B03D82030C0B2FFF7A0BF7E
:107A7000064B062213F8011B19B1013AFAD1002076
:107A8000704703F8010C0028F7D0F8E7700A0020CF
:107A9000A0F1E002072A10B4034604D8203010BC3D
:107AA000C0B2FFF79FBF064A0620002112F8014B23
:107AB000A34208BF02F8011C0138F7D110BC70477F
:107AC000700A00200248082200211DF0EDBA00BF14
:107AD0006E0A002010B50849002301EB4302B2F8FA
:107AE000014024B10133062BF7D1002010BDA2F8CC
:107AF00001000028F6D0F8E7600A002030B5002326
:107B0000074C194604EB43020133B2F80150854299
:107B100004BF51709170062BF4D1002030BD00BF1E
:107B2000600A002002480C2200211DF0BDBA00BFEF
:107B3000610A0020004870476D0A00200048704725
:107B4000600A00202DE9F041134B144EA3EB060808
:107B500007460D4606EBC106C8F3C708A84504DC76
:107B60000024384621F0E3F913E032683B689A427A
:107B70000AD1736838461B68984701280446EFD03D
:107B8000022804D00028ECD101350836E6E73D7123
:107B900000242046BDE8F08174B9040034B9040023
:107BA0000D4B0E4AD21A70B4C2F3C702002494429D
:107BB00003DB6FF0150070BC70471E680568AE42AD
:107BC00006D15D688D4203D1E1B270BCFFF7BABF48
:107BD00001340833EBE700BF34B9040074B9040082
:107BE00030B58BB0084C204619F044F8C568074AF8
:107BF00023462821684604F0BDFB0122291D684662
:107C000002F0A0FC0BB030BD7CB1040086B10400D2
:107C10002DE9F8434668C7680546306819F02AF828
:107C2000386000284AD096F8049096F80580C46819
:107C3000836848F400721B6849469847002840D181
:107C40002368012202FA09F118F0010F14BF0B4357
:107C50008B43236002F0D0FD1B4802F003FD044675
:107C600048BBDFF868800146302240461DF01CFA10
:107C7000174B1848C8F8043002F09EFC7B7963B9B2
:107C800001233B7100220023414613481AF014F8E7
:107C9000AB681B680BB128469847F18859B140F290
:107CA000E7304FF47A72002300EBC1300021FEF779
:107CB00027FA19F089FE2046BDE8F8836FF0150415
:107CC000F9E76FF00404F6E734020020A00F00206B
:107CD000E17B020099B104007829002010B5064C20
:107CE000204620F01EFF21460448BDE810404FF416
:107CF000F012002319F0E0BFA00F00207829002027
:107D00002DE9F7430C469046144901AA99461BF009
:107D100024FDE0B1019FD7B9104818F0ABFF012C4A
:107D2000C668054616D12246311D4846C047002880
:107D300006DB7471347928462CB11AF0A5FA38465E
:107D400003B0BDE8F0831AF0B1FA2046F8E76FF00F
:107D50000100F5E76FF01500F2E700BF7CB1040009
:107D600010B50C21044604201AF036FA014A0260CC
:107D7000047210BD049404007FB56C4684E80F00C3
:107D8000182104201AF028FA0546054B45F8083B4F
:107D9000064694E80F0085E80F00304604B070BD39
:107DA000089404000268034B9A420CBF083000207C
:107DB000704700BF089404007FB56C4684E80F004C
:107DC000182104201AF008FA0546054B45F8083B2F
:107DD000064694E80F0085E80F00304604B070BDF9
:107DE0000C94040084B070B504AC84E80F0020212A
:107DF00004201AF0F1F90446074B44F8083B04AD9F
:107E000006460FCD0FC495E8030084E80300304612
:107E1000BDE8704004B07047109404000268034B42
:107E20009A420CBF08300020704700BF1094040035
:107E300010B50C21044604201AF0CEF9014A026064
:107E4000047210BD1894040013B56C4684E8030056
:107E5000102104201AF0C0F90246054942F8081B17
:107E6000034694E8030082E80300184602B010BD00
:107E70002094040010B50C21044604201AF0ACF93B
:107E8000014A0260047210BD2494040010B50C2154
:107E9000044604201AF0A0F9014A0260047210BDE1
:107EA000289404002DE9F8430D4E3378A3B10D4D0D
:107EB0000D4F0024A8464FF0580909FB04803022DA
:107EC0000021203001341DF0EFF842F20F730A2C2C
:107ED0006F6245F8583BF0D100203070BDE8F88360
:107EE000760A0020D00F00208F23040010B5064A28
:107EF0000023114652F8044B14B941F8230010BD79
:107F00000133282BF6D1FAE7582A0020F0B5C369CF
:107F1000027E597C93B009B1032A2DD0023A002188
:107F2000012AD0E90456CDE90311076806910591AD
:107F300024D85B68039343680493CDE907750996D9
:107F400006AB0FCB0AAC84E80F00CDE90B750D969C
:107F500094E80F000EAD85E80F00039818F08AFE34
:107F600083685C6844B112AB13E903008DE8030039
:107F700003A895E80C00A04713B0F0BD9A68DB6831
:107F80000392826804925919034A46EBE373C2E9EB
:107F900002131760D1E700BF401300202DE9F8431A
:107FA000037E002B66D1394C2368834262D1C369BA
:107FB0001A7C032A25D8DFE802F0020D1D5F042990
:107FC0001FD8DFE801F01C031E051C00022217E089
:107FD000032215E0042914D801A252F821F000BFB1
:107FE000FF7F020003800200CD7F0200D17F0200EC
:107FF000FF7F02000329EBD011F0FB0F01D101221A
:108000000276027EB2B3596900290DDD456D6A1C06
:108010000AD01833002253F8046BB54204D0013261
:108020009142F8D10123037600232360FFF76EFF0E
:10803000D4F80080B8F1000F1CD1154FDFF8549030
:10804000282657F8045BADB1236847F8048C23B1A8
:108050004FF4A470002119F0B7FC2846FFF7A2FEE8
:1080600010B92846FFF7DAFE49462846FFF798FD83
:10807000013EE6D1BDE8F8830129A7D002D8002946
:10808000BDD0BEE703390129B9D9BAE7F82A0020E3
:10809000582A00206094040082B02DE9F04708A916
:1080A000054681E80C00006818F0E4FD2E490C68D4
:1080B0008CB9D5E90189DDE90AC2DDF824E02B4E4F
:1080C000582742F20F7A07FB04F5AB59534507D006
:1080D00001340A2CF7D1BDE8F047002002B0704708
:1080E000476846F805E07019002303764FF0FF3328
:1080F00043651F4B08601968C7618E45C0E9018957
:10810000C0E904C208D1D3E902138C4572EB030322
:1081100002DA0421FFF742FF582303FB04643968A5
:1081200024690C4420F057FD4FF47A72A0FB02033F
:1081300002FB0133C00B40EA4340211A21EAE171FE
:1081400040F2E7304FF47A72002300EBC13049145B
:10815000FDF7D6FF0B4605F12001024631440548E4
:1081600019F0AAFDB7E700BFF82A0020D00F0020C1
:1081700040130020782900202DE9F0470546FFF73D
:1081800011FE002868D02846FFF70CFE3E4ED0F8BE
:10819000008004460A2742F20F794FF0020A336842
:1081A00098450CD04B450AD0F3695B7C3BB1337EDC
:1081B000032B04D186F818A03046FFF7A7FE013F35
:1081C00006F15806EBD1314F386810B90020BDE8F0
:1081D000F087227923681AB1426D013208BF4365E6
:1081E00002689A42F2D0C3691A68D0E90431D31800
:1081F00041EBE272D4E90261B34272EB010302DAAD
:108200000321FFF7CBFE267966B12846FFF76EFE05
:1082100023793868002B14BF01210221FFF7BEFE2D
:108220000220D4E7D4F80090DFF86480B24658F812
:10823000040B70B1FFF7B6FD30B10368994503D167
:108240000379002B18BF06460AF1010ABAF1280F7C
:10825000EDD1002ED9D1B9E72846FFF7DFFD002880
:10826000B4D02846FFF7DAFD084B1B68002BADD0D1
:108270004368E03B072BA9D80378072BA6D12846F3
:10828000FFF734FECCE700BFD00F0020F82A002013
:10829000582A002082B02DE9F0412B4E06A981E832
:1082A0000C000024582202FB04F081598B4239D182
:1082B00035182030304420F034FCEB691A68D5E9D9
:1082C0000431D31841EBE27208998B42099B72EB9F
:1082D0000303804603DA03212846FFF75FFE582791
:1082E00007FB046700212846FFF758FEFB695B7C0B
:1082F00053B13B7E032B07D128461AF059F80123CE
:108300003B762846FFF702FE28461AF051F818F18E
:10831000440F4FF058030DD103FB0464012384F88C
:10832000503002E001340A2CBDD1BDE8F0410020FC
:1083300002B070475C43331942F20F72325100228F
:108340001A7683F85020F0E7D00F002003281FB5DD
:108350002AD818B911B9002004B010BD144C01235B
:1083600022688340E9B113439A422360F3D08DF829
:1083700000008DF8011020F02EFC4FF47A72A0FB63
:10838000020302FB0131C00B40EA4140C90BCDE9B9
:10839000020104AB13E90F00FFF70EFD19F05EFFB9
:1083A000D9E722EA0303DFE76FF01500D4E700BF47
:1083B000FC2A0020014B19681AF072B8FC2A002030
:1083C0004FF4F6732DE9F047434391460C2202FB2C
:1083D0000132274B134480460D4693E807008AB0CC
:1083E00003AC84E80700DDE9126718F043FC0028BD
:1083F0003CD0CDE90685CDE90867039818F03AFC32
:108400008368D3F800A0BAF1000F09D00AAB13E9D2
:108410000300DDE906238DE803002046D047A8B914
:10842000B9F1000F15D0CDE90685CDE908670398AD
:1084300018F020FC83685D68ADB10AAB13E9030056
:10844000DDE906238DE803002046A8470AB0BDE811
:10845000F087CDE90685CDE90867039818F00AFC96
:1084600083689D68E8E76FF02200EFE70120EDE701
:10847000A49404002DE9F743DFF8449005469046A4
:108480001F460E4619B10F4B1B6849F820300324D4
:1084900059F82510E0B21AF003F830B9013CF7D2D0
:1084A0006FF0220003B0BDE8F083CDE900873246CB
:1084B00029462046FFF784FF0028F3DDEEE700BFE2
:1084C000002B0020FC2A002007B5094B1A78094B25
:1084D0008DF80020162102FB0133019302AB13E952
:1084E0000300FFF7B1FC03B05DF804EB19F0B6BE72
:1084F000C47C0020C67C002002490348012202F00F
:1085000021B800BFC47C00200DB30400014600F177
:108510000803BFF35B8F53E8002F42F0010043E8EC
:10852000000CBCF1000FF6D1BFF35B8FD30702D470
:10853000014820F038B970477829002070B50378D9
:108540008AB004460E4607AD032B20D8DFE803F0BF
:1085500002191B1D114928461CF03CFD6378049349
:10856000A3780393E37802932379019363790093CB
:108570000B4AA37905951E2130461AF0A0F90AB0DE
:1085800070BD0849E7E70849E5E70849E3E7084A15
:108590000A2128461AF093F9E0E700BF20B304004F
:1085A00049B3040027B304002EB3040038B3040019
:1085B00042B304002DE9F0438BB00D4616461F4927
:1085C0006A46044698461BF0C8F8F8B10098E8B12E
:1085D0000A2201A91CF085FC019B1F7857BB162DB0
:1085E00028D1C4B2042C25D8DFF854906C432A4615
:1085F00009EB04014046B047002818DD04F10F00E4
:1086000002A94844FFF79AFF002010E00D496A468E
:1086100020461BF0A2F850B1009B002BF4D1012D95
:1086200008D109492A464046B04700EAE0700BB03D
:10863000BDE8F0836FF01500F9E700BF6CB30400EC
:10864000C67C002011B30400C47C002010B588B0A3
:1086500004461DF048FC6946FFF770FF0A48FFF723
:1086600055FF20461DF03FFC084B09491B78162298
:1086700002FB03110F3107221CF0DAFC10B9054888
:10868000FFF744FF08B010BDA4020020C47C002006
:10869000C67C00209802002007B50A4B0A481B78C8
:1086A000162202FB03006946002307220F300093C5
:1086B000CDF803301CF0BCFCB0FA80F0400903B0E8
:1086C0005DF804FBC47C0020C67C00202DE9F0414D
:1086D00004468CB00D464FF016080F4F04A92846EB
:1086E00014FB08F6FFF72AFF06F10F0029460722C0
:1086F00038441CF0AEFC22460849684603F052FE9E
:108700004246B919684601F01DFF0548FFF7FEFE15
:108710000CB0BDE8F08100BFC67C002075B304003A
:108720009802002037B50E4B0E4C1B78162202FB28
:1087300003440F3400250722694620460095CDF8F2
:1087400003501CF075FC48B12146284605F08CFF0B
:1087500020B11DF087FB012003B030BD0020FBE7F6
:10876000C47C0020C67C0020F0B58DB0FFF794FFDC
:10877000044610B9FFF7D6FF00B90224204D28782F
:1087800004EB0010112805DC02282DD010280AD097
:10879000002405E0202806D012284FF000040AD05B
:1087A00020460DB0F0BD05F0EBFA00232B70044617
:1087B0000028EDD0F4E705F0E3FA2C700446002819
:1087C000EED1104F0FCF02AE0FC63B680E4933609B
:1087D00004220094234602A805F0C4FA04460028A7
:1087E000DED102232B70D3E7064E0FCE07AC0FC4A9
:1087F00033682360002304490093042207A8EBE7B1
:10880000C57C0020A0920400689C040030B591B0A3
:1088100005461DF068FB08A90446FFF78FFE01A975
:10882000284605F075FF9DF80530012B05D1FFF7AF
:1088300033FF214618B904F0F7FD11B030BD034BEA
:108840001878FFF743FFFFF78FFFF6E7C47C00209F
:1088500030B58BB00D4604461DF045FB02A9FFF76D
:108860006DFE154B00221A701DB1FFF77DFF0BB096
:1088700030BD124A506991696B4603C36946204670
:108880001DF07CFB022120461DF032FAFFF76CFF41
:1088900020461DF028FB0A4B0A491B78162202FBD2
:1088A00003110F3107221CF0C3FB0028DFD106485B
:1088B000FFF72CFEDBE700BFC57C0020A092040080
:1088C000C47C0020C67C00209802002010B5002047
:1088D00004F0F4FF0446E0B901F08EFF0E4801F009
:1088E000C1FE0446A8B90D4B0146302218461CF0C3
:1088F000DBFB0B4A42600B4801F05EFE0A4801F0C8
:108900005BFE0A4805F020FD094806F05FF8FFF716
:108910002BFF204610BD00BF800200205013002016
:10892000F984020085B3040089B3040064020020C6
:10893000B00200202DE9FF41124E134F307816256A
:108940004FF00F0815FB00800024072269463844C9
:108950000094CDF803401CF06BFB68B1317815FB37
:1089600001813944204604F05FFD3078029402A969
:10897000CDF80B40FFF7AAFEFFF7F6FE002004B08B
:10898000BDE8F081C47C0020C67C0020042808B526
:1089900014D80C4B1A7882420ED018700A4820F076
:1089A000C0F8094909484FF4F012002319F084F97E
:1089B000FFF7DAFEFFF788FD002001E06FF02500E9
:1089C00008BD00BFC47C002050130020782900207F
:1089D000054B187805230130B0FBF3F303EB830359
:1089E000C01AC0B2FFF7D2BFC47C0020054B187874
:1089F00005230430B0FBF3F303EB8303C01AC0B2CA
:108A0000FFF7C4BFC47C0020034B04481B78162228
:108A100002FB03000F307047C47C0020C67C00209E
:108A200013B5044683682B21DB689847A8B9A3686F
:108A30006A461B692B212046984770B9084C009B59
:108A400022789A4209D0D8B2207000F0FBFC20B9FD
:108A50002078FFF70FFA19F001FC02B010BD00BF3B
:108A6000347D0020014B1868FFF7DABFA42B0020EB
:108A700013B50C4818F0FEF80B4A106070B1FFF700
:108A8000CFFF044638B94FF4F01200230748CDE970
:108A9000002319F0D3FA204602B010BD6FF0120483
:108AA000F9E700BF96B30400A42B0020000C0020BF
:108AB0000949BFF35B8F51E8003F43F0010241E8F1
:108AC00000200028F7D1BFF35B8FDB0703D40348F6
:108AD00008391FF068BE7047E002002078290020A6
:108AE00010B50A480A4C18F0C5F8206058B1094B77
:108AF00009494C2215F0C6FD20681FF081F907488E
:108B000001F0B8FA08B16FF0150010BD9EB3040073
:108B1000A82B0020889C0400A4B30400218B020031
:108B20000A4B0B491870BFF35B8F51E8003F43F0CD
:108B3000010241E800200028F7D1BFF35B8FDB077B
:108B400003D4044808391FF02EBE70477E0A002067
:108B5000EC02002078290020014818F055BF00BF22
:108B6000740D002038B5144B1B7804460D460B2BB2
:108B70000BD8DFE803F01E1E0A0A1E060A0A0A0ABC
:108B80000A1EBDE838401AF0E9BC4FF476720023A3
:108B90000A4818F05FFF0A482146006800232A4669
:108BA0001FF038F9044610B1044818F02DFF204694
:108BB00038BD6FF01204FAE77E0A0020740D002021
:108BC000A82B0020084B1B78042B0AD004D8022BBA
:108BD00034BF0120022070470B2B14BF022000205D
:108BE00070470020704700BF7E0A00201FB54C244C
:108BF0000294044C0194BDF8184000941EF060FBF0
:108C000004B010BDF0B3040008B5044904480523BE
:108C10004FF4007219F02AF8002008BD287E0020C9
:108C200080130020014600F10803BFF35B8F53E877
:108C3000002F42F0010043E8000CBCF1000FF6D118
:108C4000BFF35B8FD30702D401481FF0ACBD704760
:108C500080130020F0B5134E134F89B0002200237B
:108C60006946304618F004FA054608B109B0F0BD6F
:108C700019F0FFFC04460028F8D01822294602A863
:108C80001CF012FA08230DEB030120460397CDF8E0
:108C900010D0ADF8143007F04DF920461DF0E2F881
:108CA000DCE700BF0C0D0020109D04002DE9F04111
:108CB000134FDFF850808AB001AE00220023314606
:108CC000384618F0D5F9054610B10AB0BDE8F08174
:108CD00019F0CFFC04460028F7D01822294604A832
:108CE0001CF0E2F90C2304A92046CDE90586ADF875
:108CF0001C3007F01FF920461DF0B4F8DDE700BF77
:108D0000E40C0020749D040037B5054640F6CD42C2
:108D1000014600230C4818F059F9044678B110F1C7
:108D20000B0F09D1002200236946074818F0A0F96B
:108D30002846FFF7E9FF0446204603B030BD03484C
:108D4000FFF770FFF8E700BF0C0D0020A403002020
:108D500030B5054685B040F6CD42014600230C48AB
:108D600018F034F9044678B110F10B0F09D1002244
:108D7000002301A9064818F07BF92846FFF7E8FF11
:108D80000446204605B030BD0248FFF74BFFF8E728
:108D9000E40C00209803002008B5FEF7CBFE094A3A
:108DA000127822B1012A07D06FF0220008BDBDE879
:108DB00008400921FFF7D6BEBDE808400130FFF7A3
:108DC000A3BF00BF870A002008B5FEF7B7FE094A17
:108DD000127822B1012A07D06FF0220008BDBDE849
:108DE00008400D21FFF7BEBEBDE808400130FFF787
:108DF000AFBF00BF870A002002490348012201F0EB
:108E0000A1BB00BF367D00203CB4040010B501F0CA
:108E1000F3FC094801F026FC044650B9074B302208
:108E2000014618461CF040F9054A4260054801F029
:108E3000C3FB204610BD00BFB0030020201400205B
:108E4000F98D020050B4040038B5FFF76BFCC8B1CF
:108E5000FFF7B8FE02281BD10F4B1C780F4D2B7863
:108E6000A34217D0FEF72EFEFEF75CFEFFF794FF3D
:108E7000FFF7AAFF20462C70FEF7DAFFBDE8384066
:108E800019F0ECB9FFF79EFE841E18BF0124E5E738
:108E90000124E3E738BD00BF367D0020870A0020AB
:108EA00070B50C4615460A4900221E461AF055FCBC
:108EB00050B1012C09D1074922463046A847002865
:108EC00002DDFFF7C1FF002070BD6FF01500FBE76A
:108ED00046B40400367D00200148FEF73DBD00BFCA
:108EE0005AB4040030B50A4C0A44914200D130BD56
:108EF00011F8013B58400309E35C83EA0013DDB23B
:108F0000C3F30313E05C80EA0510C0B2EDE700BFD5
:108F100060B404000B6801330B60014B1B681847F9
:108F2000C803002007B50B46002102460191034803
:108F300001A900F0F9F803B05DF804FB158F0200F9
:108F400030B585B0CDE901010446002501A90548E9
:108F5000039500F0E9F8DDE902309842B8BF2554E6
:108F600005B030BD7F2804002DE9F84FB0F8189007
:108F700019F00808044693460DD001290CBF49F0AA
:108F8000100949F02009A0F818908BF31188BFF35D
:108F90006F8FBDE8F88F09F00709022907D1204635
:108FA00019F0B4FC0028F0D00128238B4ED167695A
:108FB000218B002F15DA256821F00701C4E900880C
:108FC00041F0010121830026218B01F0070ACA45E7
:108FD00002D0A368002B5AD10DB9002E71D0002306
:108FE00056E001F007035A1F012A1ED821F007019D
:108FF000062B256889B2C4E900880AD13DB1638B8C
:109000002A46126801339BB2002AFAD1638341F0E9
:1090100002012183204619F079FC06460028D3D0AE
:10902000238B43F020032383CDE7042B0CD121F0C5
:10903000070189B22183204619F068FC0546002803
:10904000C1D041F0200121830025BCE7032809D1CC
:10905000226923F00703166843F0060323830025E3
:109060002F46B1E7042806D1226923F0070356688A
:1090700043F00403F2E7052806D1226923F0070331
:10908000966843F00503E9E700252E46E8E701234B
:1090900041F0080121838BF31188BFF36F8FFBB977
:1090A00085BB16B11F492046B0474FF02003EFF3B0
:1090B000118B83F31188BFF36F8F238B23F0080389
:1090C0002383238BDA0625D523F010032383012184
:1090D000B4F8189009F0070900297FF45EAF54E74F
:1090E000A1680029DCD0D1F80090D1F804B03B464B
:1090F00052462046D847B9F1000FD1D04946D9F899
:109100000090F2E729463B46524620462D6819F06A
:1091100019FCC5E713F020011EBF23F020032383B1
:109120000221D5E7712904002DE9F04F8DB000240C
:109130001F46531E064689460B9407934FF0FF3592
:10914000A0464FF0000A0AE0BAF1000F11D125281D
:1091500000F042814946B0470B9B01330B93079BBC
:1091600013F8010F07930028EED10B980DB0BDE85E
:10917000F08F7A280AD8622812D8302854D047D8DD
:10918000252800F027812D2800F02D814946252033
:10919000B0470B9B01330B93079B4946187814E1AA
:1091A000A0F16303172BF1D801A252F823F000BFFE
:1091B000C59302006D9202008D9102008D91020014
:1091C0008D9102004F9202006D9202008D9102007B
:1091D0008D9102004F9202008D9102008D9102004C
:1091E0008D910200FB9202008D9102008D91020090
:1091F000A19302008D9102006D9202008D910200F8
:109200008D910200FB9202008D9102004F920200AC
:1092100039280FD95828B9D16C2C40F0B58057F8AF
:10922000042B4FF0000B99E0002D03DAB8F1000F8A
:1092300000F0DC8025EAE5750A2303FB0505B8F19B
:10924000000FA5F1300508BF4FF0020887E7682836
:1092500003D1682C06D1482481E76C2802D16C2CFC
:1092600000F0C780002C91D1044678E77A2C07D112
:10927000BA465AF8042B9346D71775282ED112E018
:109280006C2CF5D04C2C07D1073727F00707BA46CE
:109290007F685AF808BBF0E7752807F1040A1AD16D
:1092A000D7F800B00027B8F1030318BF0123B8F1C5
:1092B000010F0CBF30222022CDE901320BA90A2375
:1092C000CDE9035100935A463B464946304619F0D2
:1092D000E6FE574635E73A689346D717002FE2DA9D
:1092E00049462D20B0470B9BDBF1000B03F1010336
:1092F0000B9367EB4707013DD5E770288CD157F8F2
:10930000043B3D493D484FF0000B5B451A460CBFFE
:109310008A4682461AF8010B4946CDE90832B04721
:109320000B9801300B909AF80000DDE90832002814
:10933000F0D193B9A5F1050AB8F1030F7FF401AF9D
:10934000BAF1000F7FF7FDAE49462020B0470B9BD6
:1093500001330B930AF1FF3AF2E7023DB8F1030340
:1093600018BF0123B8F1010F0CBF30202020CDE938
:1093700001300BA91023CDE90351009349465B4608
:10938000304619F08CFEDCE64C2C7FF448AF0737F2
:1093900027F007031F46D3F804B057F8082BDDE782
:1093A00057F804ABD3465B461BF8010B20B9A3EB7F
:1093B0000A0AA5EB0A0ABFE74946B0470B9B0133EF
:1093C0000B93F0E757F8040B4946B0470B9B01336A
:1093D0000B93B6E64946F8E75446D0464FF0FF35C2
:1093E0004FF0010ABBE64FF00308B8E64FF0010862
:1093F000B5E64C24B3E600BF70B4040076B40400B4
:109400001FB507240294044C0194BDF81840009441
:109410001DF056FF04B010BD880A002010B5084C9E
:1094200086B024788DF81740012402940DF11704BA
:109430000194BDF8204000941DF042FF06B010BD1D
:109440008F0A002000B589B064288DF8070019D86C
:109450000E4B18221870002102A81BF025FE0C4BA1
:1094600003930DF10703049302A901230020ADF833
:10947000143006F05FFD10F1390F08BF002009B06D
:109480005DF804FB6FF01500F9E700BF8F0A0020BC
:10949000809E04002DE9F7430E4680460821C06AED
:1094A000DFF84C9019F018FF3468241A074634602E
:1094B00004EA0905AC4203D8002003B0BDE8F083FC
:1094C00008236A462146404619F062FE0028F4D17E
:1094D000684619F0E1FE40B9BDF80230BDF804203D
:1094E000346005EA090513441D44E41BE2E700BFAC
:1094F0000000FFFF2DE9F04F044693B0C06A082139
:1095000019F0EAFE63681B0C1B04804601A9E08980
:10951000019319F0D6FE019BA1891944A1EB080122
:10952000082304AA2046029119F032FE0028C0F256
:109530008380E36A04AA1979002312F8010B81429F
:109540006CD10133082BF8D10199204619F07DFE2A
:1095500072E0029BBDF812201B0C1B041344029303
:10956000DFF8DCA0DDF8089006AA02A9204619F071
:10957000BDFE002860D106A819F08EFE80BB63688E
:10958000039308AA03A92046039D19F0AFFE002803
:1095900052D1BDF82020BDF818309A4223D062681D
:1095A000039B9A42EDD14D451AD1BDF81C30BBB199
:1095B000BDF81A3009EA0A061E4406A8A368ADF8E9
:1095C0001A3019F075FEE36ABDF81C701D686D4213
:1095D00005F020056FB906A9204619F035FF58BBE4
:1095E000C145BFD1B0E708A819F056FE0028D6D172
:1095F000D9E7BD42AB4628BFBB465B460AAA314607
:10960000204619F0C5FDB8B95A460AA9204619F0F6
:1096100008FF88B9A7EB0B075E44DBE70298A0EBD5
:10962000080804A819F038FE002892D002A92046A4
:10963000FFF730FF002893D013B0BDE8F08F00BFD4
:109640000000FFFF2DE9F047044686B00D4600F10B
:10965000140630461FF023F8284617F00BFBA062D3
:10966000002800F0D68083681B699847E06228B91B
:109670006FF01505284606B0BDE8F087A06A83683C
:109680001B6998470368013B1F2BF1D8A06A21682A
:1096900003AA1EF029FD0028EAD1A589002DE7D0F4
:1096A000049BB5FBF3F203FB1255002DE0D1E389D7
:1096B000012BDDD9E36A009593F804804FF0FF3366
:1096C0004FF0FF32304617F02DFDE06A082119F007
:1096D00003FEA9460746E3891FFA85FA534553D886
:1096E000E3894B4500F0928053450BD10099082344
:1096F0004246C91B204619F083FD18B9E089694626
:1097000019F0DFFD009BDFF84491DA1B03EA09033F
:109710006260A360D4E9011399420ED3082301AA21
:10972000204619F035FD054628BB01AB13F8012B87
:10973000904571D10135082DF8D1D4E901318B4222
:1097400007D95B1A4246204619F05AFD051E12DB66
:109750003ED16368DFF8F490E08903EA09036946C3
:10976000009319F0AEFDA38900994246204619F0F6
:1097700047FD051E32DA304617F046FD002D7FF416
:1097800079AF0123237475E7A1892B04C91B13FA50
:1097900081F1424608232046009119F031FD78B14D
:1097A000E089694619F08DFD09F101090099082346
:1097B000424620461FFA89F919F022FD00288FD071
:1097C000013588E7BAF1000F3CD06FF01C05D2E7F5
:1097D000E26AA36812681344A360AEE7CBD0616865
:1097E000204619F032FD05460028C4D16368A089DF
:1097F00003EA09030344A3EB4707676007EA090785
:10980000A7602046FFF776FE0546B4E76FF0200517
:10981000B1E76FF005052DE701A819F03DFD65687A
:1098200080B9009ABDF80630BDF808A0E06A02EAE7
:1098300009021A44A260514619F04EFD0244AA42A0
:10984000A260BFD0ED1B656064E700BF0000FFFFB2
:109850002DE9F04F1E46037C89B0044689469046A8
:10986000002B00F0B280C26A0821104619F034FDC6
:1098700031468246104619F02FFDA3890AEB4A02B1
:109880009B1AB3420746C0F0A3801EB1B8F1000F87
:1098900000F09E806368039304AA03A92046DDF8C4
:1098A0000CB019F023FD0546002859D1BDF8103041
:1098B0004B4505D06268039B9A42EDD1D6B94FE083
:1098C00004A819F0E9FC0028F4D1BDF8143086B1E1
:1098D000B3420FD1BDF812004FEA1B410904014405
:1098E00033464246204619F061FC002802DC05465A
:1098F00036E0ABB3002F37D104F1140A4FF0FF323A
:109900004FF0FF33504617F00DFCDFF8CCB0E38981
:109910009D4257D0D4E90123F9188A4227D3ADF8E4
:109920001A3006A8FF238DF81E30ADF81890ADF858
:109930001C6019F0BDFC32464146204619F071FD0D
:10994000034638B906A9204619F07EFD002814BF49
:10995000034633460193504617F056FC019B1D46C3
:10996000284609B0BDE8F08F5744BFB2C4E70821CC
:10997000E06A19F0B1FC4FF6FF73ADF81830002320
:10998000ADF81C301318ADF81A30A38902EA0B02A7
:109990001A44121A626006A819F08AFC06A9204629
:1099A00019F052FDE089211D19F08BFC636803EA70
:1099B0000B03A3602046FFF79DFD03460028C9D195
:1099C0000135A4E76FF01B03C4E76FF00C05C7E790
:1099D0006FF01505C4E700BF0000FFFFF0B5104BA6
:1099E000104C114D1B1B9B106B43104DD5F824C020
:1099F00000259D4202D16FF02200F0BD67686745E7
:109A00000AD3266946B197F802E00779BE4503D12B
:109A10003346BDE8F040184701352434E9E700BF7C
:109A2000A00F00207C0F0020398EE338AC2B0020E3
:109A30002DE9F041124B134C134D1B1B9B106B4334
:109A4000124DD5F824C000259D4203D16FF02200AD
:109A5000BDE8F081666866450ED3A76967B196F8E0
:109A6000028090F804E0F04503D13B46BDE8F041A8
:109A700018477679012EF8D001352434E4E700BF89
:109A8000A00F00207C0F0020398EE338AC2B002083
:109A90002DE9F8430E4D0F4C0F4B641BA4100646E6
:109AA0000F4690465C434FF000094C4502D16FF0E1
:109AB00022000BE06B691BB909F101092435F4E7B9
:109AC00042463946304698470028F5D1BDE8F8832C
:109AD0007C0F0020A00F0020398EE33807B5837873
:109AE0008DF800300379427943EA0223ADF8023061
:109AF000C378684603F003038DF8043001F01CFDC1
:109B000010F1450F04D018B1002003B05DF804FB3C
:109B10009DF8000001F096FD10F1450F01D00028DE
:109B2000F2D1024B012083F8B900EEE7AC2B002004
:109B300008B509480378C3F341130A3350F82330BA
:109B40003BB100F1080200F110019847C043C00F7B
:109B500008BD1846FCE700BFAC2B00202DE9F14FF3
:109B6000254D264C264B641BA4105C43031F012B80
:109B700006460F4625D8DFF88C9099F8B93003B324
:109B800000F056FC042E1CD14FF00008444515D0BF
:109B9000D5F820B04FF0000A2A7F5FFA8AF39A4284
:109BA00003D808F101082435F0E70BEBC3030AF1F1
:109BB000010A187901F070FD0028EDDA002389F818
:109BC000B9300D4D4FF00008A04508D10D4B1B6A70
:109BD0007BB13946304601B0BDE8F04F1847EB681D
:109BE0001BB13A4631462846984708F1010824350A
:109BF000EAE701B0BDE8F08F7C0F0020A00F002045
:109C0000398EE338AC2B00202DE9F04FA94DAB691C
:109C100085B006460C46904663B9337803F01F03BF
:109C2000012B00F08880022B00F0D18043B16FF04F
:109C3000150002E098470028EFD105B0BDE8F08F8D
:109C400072787088D8F80030092AF0D801A151F84C
:109C500022F000BF7D9C02002F9C02002F9C02007E
:109C60002F9C02002F9C0200899C0200939C020002
:109C70002F9C0200C19C0200CB9C0200002001220C
:109C800058701A7002236FE0C0B201F043FC00204C
:109C9000D3E7020A131F012BC9D9072AC7D86B6A59
:109CA000C0B200211D78002DC1D05E78964203D14C
:109CB000884200F0F68001312B44F3E71B78F6E090
:109CC00095F8BA201A700123F1E0C7B28DF80F7031
:109CD00077B14FF0FF086C6A0026C146237853B96C
:109CE000EB691BB10DF10F0103209847002E9ED0A8
:109CF00085F8BA70CBE76378042B0DD0052B0ED016
:109D0000022B06D194F805809DF80F30434508BF1B
:109D1000012623781C44E1E794F80390F9E79DF8C5
:109D20000F304345F5D1B9F1000FF2D12046FFF7CE
:109D3000D5FE0646EDE795F8BA30002B3FF477AF35
:109D40006F6A96F804903B46197800293FF46FAF8C
:109D50005A78022A03D11879484500F2B3800B449F
:109D6000F2E7002018700123236066E796F802B03E
:109D7000FF26B2464FF000083B783BB9EB6913B1C0
:109D80004146072098470020206056E77B78042B47
:109D900004D0052B0BD03B781F44EDE7BE7897F835
:109DA00003A0B145F7D1D34508BFB846F3E7B145A5
:109DB000F1D1D34507D0B878019019F090FC019803
:109DC00001F06AFCE7E73846FFF788FEE3E7307901
:109DD000D8F800708DF80F0030F0800C1ED0364A95
:109DE000364B37499B1A9B104B434FF0000E73457F
:109DF0003FF41DAF116A92F81C904FF0000804392F
:109E00005FFA88FACA4503D30EF1010E2432EEE759
:109E100008F1010811F838A08245F1D17378012BBF
:109E200012D0032B27D0002B7FF401AFBCF1000F21
:109E300004D095F8BA30002B3FF4F9AE394601F062
:109E4000E5FB002078701DE77388002B7FF4EFAEF0
:109E5000BCF1000F04D095F8BA30002B3FF4E7AE08
:109E600001F0B4FBEB69002B3FF411AF0DF10F01D2
:109E7000092098470BE77388002B7FF4D8AEBCF11C
:109E8000000F04D095F8BA30002B3FF4D0AE01F0AB
:109E900075FBEB69002B3FF4FAAE0DF10F010820C2
:109EA000E7E7022AC8F800307FF408AF5B88236038
:109EB000EDE600BFAC2B00207C0F0020A00F00209F
:109EC000398EE3387078D8F800300A283FF449AF6B
:109ED0000B283FF44BAF00287FF4A9AE18705870E0
:109EE0002260AAE637B5134C237D0546BBB9E2686C
:109EF000A168019201AB802019F018FB0199A268BA
:109F0000E3680A445B1AA260E36033B923699D42A7
:109F100003DD9B0601D10123237503B030BD00236F
:109F20001A4619468020237503B0BDE8304001F081
:109F3000D3BB00BFAC2B002030B585B00B46002151
:109F40000246019100285ED1002B3AD108220DEB88
:109F5000020119F0E6FD002804DA802001F00EFB72
:109F600005B030BD2D4C9DF809306370BDF80A3046
:109F70006380BDF80C30A380BDF80E309DF808203A
:109F80002270802BE38006D9D10904D1802001F012
:109F9000F5FA0020E2E722492361C4E90213002117
:109FA00021750BB1D309DBD0FFF7C2FD0028D4D057
:109FB000E08823698342D4BFE360E060FFF792FF4B
:109FC000CEE7164CD4E90215002D01AB04DC19F0E4
:109FD000A8FD0028C4DAC0E72A4619F0A2FD00282F
:109FE000D4DB0199A268E3680A445B1AA260E360CB
:109FF000002BB5D104F13803A360FFF799FD0028C9
:10A00000ABD0E088DAE78028AAD1044BDA6812B92D
:10A010001A7D002AA4D0D888D0E700BFAC2B00203E
:10A02000E42B0020054B064A9A62064ADA62064A89
:10A030001A63064A58629A6100207047AC2B0020D0
:10A04000099C0200DD990200919A0200319A0200F7
:10A05000074B10B593F8B84024B900F0AFF918B128
:10A06000FFF7E0FF002010BD4FF0FF30FBE700BF1F
:10A07000AC2B00202DE9F7430446384D38484FF00B
:10A08000FF324FF0FF3317F04DF895F8B860002E0F
:10A0900041D134482C62E86101F034FC01F0FCF954
:10A0A000041E39DB00F0E4F9041E35DB402368466A
:10A0B000ADF802308DF804608DF8006001F03CFAD4
:10A0C000041E29DB802768468DF8007001F034FA01
:10A0D000041E21DB2449304601F000FC041E1BDB7A
:10A0E0002149384601F0FAFB041E15DB1F4F204CB6
:10A0F000204BE41BA4105C43B44214D1002001F0B7
:10A10000A1FA041E08DB802001F09CFA041E03DB88
:10A11000012385F8B8300024114817F075F820465F
:10A1200003B0BDE8F083D7F820904FF000083A7FE5
:10A130005FFA88F39A4202D801362437DCE709EB4C
:10A14000C30259F83310107901F0C8FB08F1010877
:10A150000028ECD04FF0FF34DEE700BFAC2B00202E
:10A16000D00C00205D9B0200399F02007C0F002074
:10A17000A00F0020398EE33830B51C4B89B003AAFC
:10A1800003F1100518685968144603C40833AB423C
:10A190002246F7D11B7823700822002101A81AF06B
:10A1A00083FF1222002112481AF07EFF082101A825
:10A1B00019F0C6FC002816DD0D4901AA002012F88E
:10A1C000013B08AC04EB131403F00F0314F8144C18
:10A1D0000C7008AC2344013013F8143C4B70082871
:10A1E00001F10201EBD1024809B030BD94B4040082
:10A1F000377D00202DE9F04F6B4A6C4B9B1A6C4A5F
:10A2000087B09B1053430446019300254FF0011B78
:10A21000A9462E46AA46207820B9664B02349C42B5
:10A2200017D0F2E76378052B05D8DFE803F0830445
:10A230000383072BA24623781C44ECE7E378002B2A
:10A24000F9D1A3789BB9584A0199994204D14FF0AA
:10A25000FF3007B0BDE8F08F51688C4202F1240254
:10A260000AD1514A242606FB0326B36833B909F103
:10A2700001095FFA89F9DEE70133E5E7494620463F
:10A280009847F4E7002EE2D000230121327F934269
:10A29000DDD2326AA77802EBC3021079874201D07F
:10A2A0000133F3E70127E07894F805C000F00300DC
:10A2B0008DF81400207940EA0C20ADF8120094F9D2
:10A2C000020000285FFA87F828DA07F1100001FA87
:10A2D00000F010EA0B0F29D168F07F008DF8100014
:10A2E00004A8CDE9023219F004FCDDE902320121B3
:10A2F000E0B99DF81030A37013F0800F1CBF08F177
:10A3000010085FFA88F813710B4615BF01FA08F8B8
:10A31000BB404BEA080B4BEA030B8CE701FA07F052
:10A3200010EA0B0F02D18DF81080D9E70137102FFA
:10A33000B9D1B5E7032D1DD1FFF71EFF074668B160
:10A340001AF052FE804648B11B481AF04DFE804577
:10A3500004D142463946A01C1AF07BFE23786FF0E8
:10A360000201E218091B04EB5303D14213D5013556
:10A37000EDB260E7002DF1D1BAF1000F3FF467AF05
:10A38000A4EB0A038AF80230C3F307238AF80330E8
:10A390008AF80490EBE74FF0000002F8010C13F884
:10A3A000010902F8020DE0E77C0F0020A00F002059
:10A3B000398EE3387C0F002094B4040008B50448BB
:10A3C000FFF718FF0028024818BF002008BD00BF93
:10A3D000F40E002010B5094B00211A461C78844267
:10A3E00005D15C681CB1442000FB012010BD013187
:10A3F000042903F14403F1D10020F7E7682C002081
:10A40000014600F10803BFF35B8F53E8002F42F0D1
:10A41000010043E8000CBCF1000FF6D1BFF35B8FE5
:10A42000D30702D401481EF0BEB970477829002036
:10A43000F8B50E4C04256FF047074FF02003EFF3FB
:10A44000118683F31188BFF36F8F6368103304D1D3
:10A4500004F134006760FFF7D3FF86F31188BFF380
:10A460006F8F013D04F14404E7D1F8BD682C002052
:10A47000F8B5094C094F04250026C4E90D67E663C9
:10A48000012204F11C0011461EF0CBFA013D04F13B
:10A490004404F2D12846F8BD682C0020D7350400CA
:10A4A000084B30B51C68084B01461A6800239C42D3
:10A4B00001DC002030BD1046103205788D42F9D005
:10A4C0000133F4E7FC9E04002C040020084B1B68B9
:10A4D00010B50C462BB1FFF7E3FF28B12060002038
:10A4E00010BD6FF00C00FBE76FF00100F8E700BF54
:10A4F0002C04002030B589B00C4615460190FFF7BA
:10A50000CFFFB8B14368029383682268C068CDE981
:10A5100003350023CDE90623059319F0FAF860B15D
:10A52000074901AA1DF0E4FD079808B9059B2360BF
:10A5300009B030BD6FF01500FAE76FF01200F7E7D1
:10A5400017370400104B2DE9F0411C6805460E46F4
:10A550001746ACB14FF0FF324FF0FF330B4816F007
:10A56000E1FD63683246D3F8088029463B46204621
:10A57000C0470446054816F047FE2046BDE8F08176
:10A580006FF00104F9E700BF802D0020BC0C002013
:10A5900000230360044B5A6812B9C3E900007047F6
:10A5A00010605860704700BF782D0020014B186084
:10A5B000704700BF802D002030B585B000230546D0
:10A5C000CDE9023301904FF0FF330C484FF0FF32DA
:10A5D00016F0A8FD0A4B1C6834B1636820461B685E
:10A5E00001A998472468F7E7284600F0C9F804460F
:10A5F000024816F009FE204605B030BDBC0C002014
:10A60000782D00201FB5CDE9010103924FF0FF33F3
:10A610000A484FF0FF3216F085FD094B1C6834B133
:10A62000636820461B6801A998472468F7E7034838
:10A6300016F0EAFD002004B010BD00BFBC0C0020E5
:10A64000782D0020024B0022C3E90022704700BF92
:10A65000782D0020024B0022C3E90022FFF7F2BF51
:10A66000842D002070B51D4C1D4E0546B44217D3F5
:10A670001C4E1D484FF0FF324FF0FF3316F052FDD5
:10A680003468A4B97268002405F114036C61DAB966
:10A69000C6E900331446144816F0B6FD204670BDD6
:10A6A000216828681AF0A7FCA0B11434DEE7143C36
:10A6B000002CE7D0216828681AF09DFC38B114F10D
:10A6C000140FDFD06469DCE713607360E3E76FF0B9
:10A6D0001004E0E76FF01004E0E700BF24920400EC
:10A6E0009C920400842D0020BC0C00202DE9F34135
:10A6F00007460E4609B100230B601E4CDFF8788038
:10A700000025444508D31D4B1C680CB1143CC4B94A
:10A71000284602B0BDE8F081216801AA384619F048
:10A720001CF860B125B90EB1019B3360254606E0E7
:10A7300029682068002219F010F80028F3D1143499
:10A74000DFE7216801AA384619F007F860B125B99A
:10A750000EB1019B3360254606E02968206800227F
:10A7600018F0FBFF0028F3D114F1140FD0D0646966
:10A77000CBE700BF249204009C920400842D0020AB
:10A78000F8B51A4C1A4F06460025BC4206D3194BA1
:10A790001C680CB1143C9CB92846F8BD1EB9E3688E
:10A7A0004BB91434F1E720680022314618F0D5FF88
:10A7B0000028F4D1F5E79847002D08BF0546F0E7DB
:10A7C00036B9E36863B914F1140FE5D06469E0E7C2
:10A7D00020680022314618F0C0FF0028F1D1F2E7CE
:10A7E0009847002D08BF0546EDE700BF24920400FE
:10A7F0009C920400842D002010B5064C23783BB9B0
:10A80000FFF728FF00F064F808B90123237010BD9A
:10A810000020FCE7497D00202DE9F047048FDFF898
:10A82000ACA0013498B080468946A4B200F1080675
:10A83000651EADB2B5F5004F45D04A2305AA29469D
:10A84000304618F06CFE04F57F543F34A4B207463E
:10A85000214601230DF10B02304618F060FE002F57
:10A86000014603DC002803DC2C46E1E7002816DC67
:10A87000B8F83830AB4209D142466B1E22F8383F57
:10A880004FF4004102233046FEF7E2FF29463046EE
:10A8900018F0EBFD2146304618F0E7FDE4E718AB71
:10A8A0001F44002307F84C3C5246CDF8009003AB00
:10A8B00005A80396ADF8104018F088FF0028D3D003
:10A8C00018B0BDE8F0870020FAE700BF3338040075
:10A8D0007FB50123694602200193FFF7F7FD044687
:10A8E000002836D102AA01A90220FFF703FE10F1C9
:10A8F000130F04462DD038B10C3405D0404080F3FE
:10A9000011884FF0040002DF0399B1F5803F23D294
:10A91000009A002395681846084485429CB203D3E8
:10A920000133082BF8D11C460D4D5368AB60284607
:10A93000D368EC82A982EB6319F012F8044640B99F
:10A94000084E6E602846FFF723FE28466E60FFF72C
:10A950002DFE204604B070BD6FF02404F9E700BF5F
:10A960008C2D002030040020F8B505464FF0200360
:10A97000EFF3118683F31188BFF36F8F094B1C68C7
:10A980005CB1094FD4E90132002D08BF13460BB169
:10A99000387898472468002CF4D186F31188BFF3E7
:10A9A0006F8FF8BDCC2D0020D42D00202DE9F34170
:10A9B000184F194C3B7801463BB96D46284618F0B4
:10A9C000EBFF95E8030084E803002578F5B1134E0A
:10A9D0004FF000080120043DC6F80080FFF7C4FFD7
:10A9E000012D98BF0E4B94E8030098BF83F80080B8
:10A9F0001AF08CFB306840B9012338703360FFF7E0
:10AA0000B3FF94E803001AF094FB2578284602B0BF
:10AA1000BDE8F0814A7D0020D42D002040040020B4
:10AA2000217E002008B5064B186840B901221A6043
:10AA3000FFF79AFF034B93E803001AF07AFB08BD77
:10AA400040040020D42D002008B504464FF0200219
:10AA5000EFF3118382F31188BFF36F8F19F0A9F818
:10AA6000204601F0CFFC034817F01CFF01F05CFA10
:10AA7000FCE700BFB8B40400084B70B5C31A0D461C
:10AA800007499B10044659430648402218F0A4FF8A
:10AA90002B4601462046BDE870401847EC2D0020AB
:10AAA000B76DDBB6940A002073B50C4C0C4A4023FA
:10AAB000041B00930D460B460A49A4106143064649
:10AAC000094818F0B5FF011E05DA30462B4602B0E2
:10AAD000BDE87040184702B070BD00BFEC2D0020EB
:10AAE000A13A0400B76DDBB6940A0020002270B5CD
:10AAF00001210446104601F0B7F9002001F082F967
:10AB00000F4814F041FD0F4B984215D114F04CFD45
:10AB1000E6680D49304617F048FF00280BDBE46873
:10AB200009490125356404F11C0017F03EFF002897
:10AB300001DBE564002070BD6FF00400FBE700BF9F
:10AB400081AB02000000AD0B249F040001460C23E2
:10AB500009484B4370B5C418D4E90E56002240335F
:10AB6000A263184418F025FF2DB132462B46034846
:10AB7000BDE87040184770BDEC2D0020940A0020FD
:10AB800010B1012804D07047034B1B6C5B0701D147
:10AB9000FFF7DCBF704700BFEC2D002008B54FF079
:10ABA0002003EFF3118183F31188BFF36F8F124AF3
:10ABB000136843F0020013F0010310600CD04FF053
:10ABC0008042D2F80C34D2F80C2413F0010303D0E5
:10ABD0000A4818F0EEFE012381F31188BFF36F8F4E
:10ABE00023B1BDE808400020FFF7B0BFBDE8084032
:10ABF00001201DF0ACBA00BF3C2E00202C2E0020FE
:10AC00007FB500220123CDE9022304ABCDE9043353
:10AC1000094ACDF800D06B46CDF804D018F039FFC2
:10AC2000002805DB4FF480420023684616F012FF2F
:10AC300007B05DF804FB00BFBF3A0400094BBFF347
:10AC40005B8F53E8002F22F0020143E80010002838
:10AC5000F7D1BFF35B8FD30702D4012014F0B2BC4D
:10AC6000704700BF3C2E0020024AC3B21C2003FBE9
:10AC700000207047EC2D0020094BBFF35B8F53E899
:10AC8000002F42F0010143E800100028F7D1BFF384
:10AC90005B8F930702D401201DF059BA704700BFA3
:10ACA0003C2E0020094BBFF35B8F53E8002F22F0AE
:10ACB000010143E800100028F7D1BFF35B8F930731
:10ACC00002D4012014F07EBC704700BF3C2E00204F
:10ACD0002DE9F0413949BFF35B8F0746012251E866
:10ACE000003F41E800200028F9D1BFF35B8F33B962
:10ACF000334934484B60CB608A6017F069FE7B1E95
:10AD0000012B2FD8012F07D14FF08043D3F81C34EB
:10AD100003F00303012B25D01DF093FE044618B960
:10AD2000294B1B78002B41D14FF02003EFF3118604
:10AD300083F31188BFF36F8F0124DFF890804FF009
:10AD40008045D5F81834D5F81824D2030CD503F073
:10AD50000303012B01D0012F06D10CB386F3118818
:10AD6000BFF36F8FBDE8F081ACB1304601F0EAF877
:10AD7000D5F81835002BE4D1D5F80421002AE0D00D
:10AD8000C5F80431D5F804310123C5F81835C8F8E1
:10AD90008031AB60D5E70021212016F015FEE7E7F2
:10ADA0004FF080430222C3F80423DBE74FF08043D7
:10ADB0000222C3F808230646BFE700BF402E00204A
:10ADC000DC2D0020082E0020227E002000E100E083
:10ADD00000F07F03082B42B204D010F0780F01D0AE
:10ADE00000207047002A00F00F0300F0080005DA89
:10ADF00058B9084800EB43104830704738B9054847
:10AE000000EB431000F5B4707047034870470348E7
:10AE1000704700BF443400208C350020AC36002041
:10AE2000014601481DF0BFBCEC0D002008B50A48E2
:10AE300014F0CAFC094814F00DFD094909484FF007
:10AE4000FF334FF4806216F011FF074B074A0020D2
:10AE5000C3E90B20986208BDEAB40400309F0400E7
:10AE6000288000205014002044340020B5B1020096
:10AE700002480022002316F00BBA00BFEC0D0020A0
:10AE800010B5054CFFF7F4FF20B1011D204616F068
:10AE900071F8F7E710BD00BF700C00200949BFF33F
:10AEA0005B8F51E8003F43F0010241E80020002899
:10AEB000F7D1BFF35B8FDB0703D4034808391DF0DC
:10AEC00072BC7047743400205014002007B5002372
:10AED0000E48002201A916F01DF890B1FFF7D0FF2F
:10AEE0000A480022002301A916F014F838B9019885
:10AEF000042340600374FFF793FFFFF7CFFF0020A8
:10AF000001E00198406003B05DF804FB700C002084
:10AF1000817870B506460846FFF75AFF0B06F578AC
:10AF2000044612D5002D43D1FFF7D0FF0346002879
:10AF30003ED00122A5770274032202739C60FFF7C2
:10AF40006FFFBDE87040FFF7A9BF4DB1012D2FD1B4
:10AF5000FFF7BCFF034658B3657705740573EDE74B
:10AF6000FFF7B4FF20B3B278124B12F0800F02F05B
:10AF7000080111D041B1D3F8A836E360012303746E
:10AF8000022303738460DAE702F00F02142101FB4D
:10AF90000233D3F80836F0E711B1D3F8A837ECE75D
:10AFA00002F00F02142101FB0233D3F80837E4E763
:10AFB00070BD00BF00700240022810B511D8094BC7
:10AFC0001C5CFFF783FF60B1002202740472FFF77C
:10AFD00027FF054B93F824301BB1BDE81040FFF765
:10AFE0005DBF10BDE7B404004434002010B50F4924
:10AFF000BFF35B8F01F12003002253E8000F01280B
:10B0000003D143E80024002CF7D1BFF35B8F0BD1B1
:10B01000CC690C31204617F049FD453004D120465B
:10B02000BDE8104017F01DBD10BD00BF4434002026
:10B03000F0B5064689B01422002103A81AF034F8AE
:10B040003378013B052B21D8DFE803F07A03141491
:10B050006A1603238DF814300024FFF737FF0346E8
:10B06000A0B1047400F10802DDE9050182E80300E3
:10B0700018461DE00423EDE7B1780846FFF7A8FE67
:10B08000837A044623B1013B022B43D909B0F0BDBA
:10B090000B06F57813D5002DF8D1FFF717FF0346FF
:10B0A0000028F3D00122A5770274032202739C606A
:10B0B000FFF7B6FE09B0BDE8F040FFF7EFBE55B1AF
:10B0C000012DE3D1FFF702FF03460028DED06577AC
:10B0D00005740573EBE7FFF7F9FE07460028D5D0A6
:10B0E0000123037402230373846004F10C01B0781C
:10B0F0001DF004F9134AE168B2F888328B4206D990
:10B100005B1AA2F8883215F01BF93846D0E7A2F88E
:10B110008852FAE7304609B0BDE8F040FFF7F8BEC4
:10B1200001A815F0E7F89DF80530052B04D19DF82E
:10B13000043013F0600FA9D0034B059301248CE772
:10B1400002248AE744340020AC35002038B50024BE
:10B1500064F07F00C0B2FFF73BFE013418F0B2FC90
:10B16000082CF5D10F4D0024E0B2FFF731FE036942
:10B1700003B90561013418F0A5FC082C05F1400560
:10B18000F2D1094C04F5A47018F09CFCD4F8783284
:10B1900013B9064BC4F87832054818F093FC002028
:10B1A00038BD00BF4432002044340020442E00202B
:10B1B000AC3600202DE9F043A74CDFF8A08285B023
:10B1C0000746FFF755FE10B905B0BDE8F08394F8C7
:10B1D0002530027C00F104093BB9002A00F085808B
:10B1E0004946404615F0C6FEEBE7042AF8D8DFE8EA
:10B1F00012F07C000500020118014101037B856803
:10B20000032BEDD8DFE803F0023C595E6E6908229B
:10B210000021304619F048FF914B9248D3F8802422
:10B220003270D3F884247270D3F88824D3F88C1445
:10B2300042EA01227280D3F89024D3F8941442EAAF
:10B240000122B280D3F89824D3F89C3442EA032335
:10B250000822F3803146EA6019F0FBFE2B68687A19
:10B26000002198473378DB0906D1F38823B1A4F88D
:10B27000883215F065F8B3E70023A4F88832AFE709
:10B280006B7F002BACD02B7F002BA9D000266E77D4
:10B290004FF0FF3274482E774FF0FF3318F025FC43
:10B2A0006B6901936B68CDE9023601A9687A14F0E5
:10B2B00045FE6D4818F01BFC92E72B680121687A67
:10B2C00098478DE7AB7A6BB9EB7F5BB966484FF077
:10B2D000FF324FF0FF3318F008FC15F061F86248B8
:10B2E00018F005FC2B680221E9E7027A042A3FF6F0
:10B2F00077AFDFE802F05B032569750014F0D2FD3B
:10B30000054600287FF46CAF14F010FDBFF35B8F8F
:10B310005649012351E8002F002A03D141E80030AB
:10B320000028F7D1BFF35B8F7FF45AAF41F8105C70
:10B3300041F8085CE0696361143917F049FB4FE795
:10B34000002565F07F00C0B2FFF742FD037A13B11C
:10B35000407A15F01BFA0135082DF2D194F85031DE
:10B360001BB194F8510115F011FA0025E8B2FFF76E
:10B370002FFD037A13B1407A15F008FA0135082D34
:10B38000F4D194F870321BB194F8710215F0FEF903
:10B39000012014F069FD012384F825302368002B77
:10B3A0003FF41EAF00210220984719E7002584F8DA
:10B3B000255015F077F9FFF719FE2368002B3FF4AD
:10B3C0000FAF29460420EFE7002B3FF409AF15F03B
:10B3D00081F92368002B3FF403AF00210520E3E748
:10B3E0002268002A3FF4FCAE002B3FF4F9AE0021A6
:10B3F00006209047F4E607F10C054FF0FF334FF0BD
:10B40000FF32284618F071FBFFF7A0FE284618F01F
:10B410006EFB57F8283C002B3FF4E2AE00210120E0
:10B42000C2E794F870327BB1012584F8855284F824
:10B430008452FFF74BFD38B10D4A057405738260E5
:10B44000FFF7EEFCFFF72AFD57F8283C002B3FF4EE
:10B45000C7AE00210A20A7E744340020700C00206A
:10B46000007002404834002078340020643400200A
:10B47000AC3600201CF0B8FE15F014F914F04CFCAA
:10B48000FFF7FEFCFFF762FE1CF0A7FE014814F078
:10B4900013FDA5E631B0020038B51A4D95F82440E9
:10B4A0005CBB05F134001DF0FAF82046FFF7DCFB29
:10B4B0002246E8610121272000F0D6FC124814F052
:10B4C000FBFC124B98421AD11CF087FEFFF73EFEA0
:10B4D000044610B9012385F824300D4B1B680BB1CD
:10B4E000FFF7DCFC4FF08043D3F83834DB0702D59C
:10B4F0000020FFF761FD204638BD0024FBE76FF018
:10B500000404F8E74434002031B002000000AD0B21
:10B51000EC0D0020074B93F824203AB193F8253026
:10B52000002B0CBF6FF01200002070476FF012006C
:10B53000704700BF443400200F4B93F8243010B5FF
:10B540000146B3B104782046FFF742FC10B96FF012
:10B55000150010BD44720B7983724988416023073E
:10B5600002D44B1E0B42F2D120461CF0C2FE00203A
:10B57000EFE76FF01200ECE744340020124B93F831
:10B58000242010B50146CAB193F82530B3B1FFF7B6
:10B590001FFC0446A8B1837A012B12D007D9023BC5
:10B5A000012B07D96369A3610020E06010BD14F08E
:10B5B000FFFEF7E7084614F06FFEF3E76FF01200A6
:10B5C000F4E76FF01500F1E74434002038B50E4B76
:10B5D00093F82420054682B193F825306BB1FFF72C
:10B5E000F7FB68B115F008040AD1284614F076FE7E
:10B5F000284615F01DF9204638BD6FF01200FBE714
:10B600006FF01500F8E700BF4434002038B50C4B4C
:10B6100093F8242005460C4662B193F825304BB1CF
:10B62000FFF7D6FB48B141B1284614F03DFE20702B
:10B63000002038BD6FF01200FBE76FF01500F8E74F
:10B6400044340020F8B5134F97F824300446BBB1BA
:10B65000FFF7BEFB0546B0B1230705D4204614F022
:10B660003DFE204615F0E4F82E7A7EB997F82500C5
:10B6700001232B7218B1204615F088F83046F8BD2A
:10B680006FF01200FBE76FF01500F8E76FF0440071
:10B69000F5E700BF443400200E4B93F8242010B58A
:10B6A000014672B193F825305BB1FFF791FB044678
:10B6B00050B1037A5BB1084615F03CF800202072C7
:10B6C00010BD6FF01200FBE76FF01500F8E76FF0A8
:10B6D0004400F5E7443400202DE9F043DFF8DC8036
:10B6E0001C4698F8243085B0074689461646002B3C
:10B6F0005DD098F82530002B59D003065AD5FFF7B6
:10B7000067FB0546002855D0037A002B52D04FF036
:10B71000FF334FF0FF3208F1340018F0E6F9AB7F49
:10B720004BB108F1340018F0E2F96FF00A0420463A
:10B7300005B0BDE8F08316B9EB7F03B1EE77AB7AC5
:10B74000BBB95EB1B8F80A309E4207D26A68B6FB50
:10B75000F2F302FB13630BB90123EB7714F030FE15
:10B76000874206D014F01CFE154818F0C0F90024DA
:10B77000DDE70123AB774FF0000801A93846CDE99A
:10B780000196CDF80C8014F0D9FB0E4B984207D0EF
:10B7900085F81E800CB1C4F800806FF0040402E04C
:10B7A0000CB126604446064818F0A1F9BFE76FF0D7
:10B7B0001204BCE76FF01504B9E700BF4434002061
:10B7C000783400200000AD0B2DE9F0411D46204BE0
:10B7D000174693F824200E46002A33D093F82530DC
:10B7E00083B3030631D401B97FBBFFF7F1FA0446F6
:10B7F00058B3037A4BB34FF0FF3316484FF0FF3284
:10B8000018F073F9E368BB42984628BFB84646B9BA
:10B810003FB905B12B600F4818F069F90020BDE869
:10B82000F081A1694246304619F013FCA3694344F4
:10B83000A361E368A3EB0803E360002DEBD0C5F838
:10B840000080E8E76FF01200E9E76FF01500E6E727
:10B85000443400207834002070B51E4D95F8242023
:10B86000034682B395F825206AB31B062ED4FFF752
:10B87000AFFA044650B3037A43B34FF0FF334FF0AF
:10B88000FF3205F1340018F030F9E368B3B901264E
:10B8900063692677A361637F83B1FFF717FB30B934
:10B8A00005F1340018F023F96FF00B0070BD067439
:10B8B00084600673FFF7B4FAFFF7F0FA064818F051
:10B8C00016F90020F2E76FF01200EFE76FF01500B5
:10B8D000ECE700BF443400207834002008B5084B62
:10B8E00093F824302BB1FFF773FA28B101600020E0
:10B8F00008BD6FF01200FBE76FF01500F8E700BF1E
:10B9000044340020014B1860704700BF44340020CD
:10B9100008B5074B93F8243023B1FFF759FA20B14B
:10B92000406808BD6FF01200FBE76FF01500F8E704
:10B9300044340020044A1368C81A20F07F400344AE
:10B94000136016F0DFBA00BFDC3600202DE9F843A3
:10B95000860006F1804600F1500406F58836A40002
:10B96000A4B204F180444FF48037D6F84035DFF8B4
:10B970006C8021F07F4504F588348740D8F8049521
:10B98000A3EB090323F07F4329F07F42012BC6F884
:10B99000402502D113201DF05AF809F10202AB1A1A
:10B9A00023F07F43B3F5000F88BF154600232360C3
:10B9B0002368C8F8447325F07F43C6F84035D8F8AB
:10B9C0000435994506D0EB1A023B23F07F43B3F5CB
:10B9D000000F01D8BDE8F8832B46CFE700100140E7
:10B9E000F8B50025104C2F46104B1E6805B1F8BD68
:10B9F000D4F80423D203FAD5D4F84021002AF6D093
:10BA0000C4F84051D4F840214FF48032C4F84823A0
:10BA1000D4F84015012526B15A681F600020B047B0
:10BA2000E2E71E60E3E700BF00100140D0360020CF
:10BA300038B50F4C00254FF48033C4F80855C4F8CE
:10BA400004330C4B4FF40032C3F8802101212A4605
:10BA5000112000F009FA112000F0D4F90123064A60
:10BA6000A360022023601360FFF732F9284638BD37
:10BA70000010014000E100E0D8360020134AB0F188
:10BA8000FF3F14BF03461346013B002B1CDD9342CE
:10BA9000A8BF13460E4AD2F804050E4A1168401A90
:10BAA00010F4000F20F07F4218BF0023013213442E
:10BAB000094A0A48106000205060044A934294BF2B
:10BAC000C9188918FFF742BF0023E3E7FFFF7F0093
:10BAD00000100140DC360020D036002035B90200CD
