:020000022000DC
:10600000E0980020ADBA0200D1460400DDBA0200DB
:10601000DDBA0200DDBA0200DDBA020000000000B5
:10602000000000000000000000000000ADB8020009
:10603000DDBA02000000000065B8020093340400DD
:106040006DBA02008DB203006DBA02006DBA020093
:106050006DBA02006DBA02006DBA02006DBA02009C
:106060006DBA02006DBA02006DBA02006DBA02008C
:106070006DBA02006DBA02006DBA02006DBA02007C
:106080006DBA02006DBA02006DBA02006DBA02006C
:106090006DBA02006DBA02006DBA02006DBA02005C
:1060A0006DBA02006DBA02006DBA02006DBA02004C
:1060B0006DBA02006DBA02006DBA02006DBA02003C
:1060C0006DBA02006DBA02006DBA02006DBA02002C
:1060D0006DBA02006DBA02006DBA02006DBA02001C
:1060E0006DBA02006DBA02006DBA02006DBA02000C
:1060F0006DBA02006DBA02006DBA02006DBA0200FC
:1061000053B94AB9002908BF00281CBF4FF0FF311E
:106110004FF0FF3000F078B9ADF1080C6DE904CE16
:1061200000F006F8DDF804E0DDE9022304B0704772
:106130002DE9F047089D0E4604468E46002B4CD1B3
:106140008A42944667D9B2FA82F252B101FA02F356
:10615000C2F1200120FA01F10CFA02FC41EA030E1F
:1061600094404FEA1C48210CBEFBF8F61FFA8CF74E
:1061700008FB16E341EA034306FB07F199420AD9FB
:106180001CEB030306F1FF3080F01E81994240F2C0
:106190001B81023E63445B1AA4B2B3FBF8F008FB18
:1061A000103344EA034400FB07F7A7420AD91CEB6B
:1061B000040400F1FF3380F00981A74240F2068118
:1061C00064440238E41B40EA064000211DB1D4407B
:1061D0000023C5E90043BDE8F0878B4208D9002DB4
:1061E00000F0EF800021C5E900060846BDE8F08711
:1061F000B3FA83F1002949D1B34202D3824200F2BB
:10620000FF80841A66EB030301209E46002DE2D036
:10621000C5E9004EDFE702B9FFDEB2FA82F2002ADA
:1062200040F08E80A1EB0C064FEA1C471FFA8CF35E
:106230000121B6FBF7FE07FB1E60260C46EA00466E
:1062400003FB0EF0B04208D91CEB06060EF1FF3836
:1062500002D2B04200F2D080C646361AA4B2B6FBD3
:10626000F7F007FB106644EA064400FB03F3A34281
:1062700008D91CEB040400F1FF3602D2A34200F25D
:10628000B8803046E41A40EA0E409FE7C1F120078B
:1062900022FA07F48B40234306FA01FC26FA07F49E
:1062A00020FA07F646EA0C064FEA134900FA01F80D
:1062B000B4FBF9FE300C1FFA83FC09FB1E4440EAD4
:1062C00004440EFB0CF0A04202FA01F20AD91C1998
:1062D0000EF1FF3A80F08B80A04240F28880AEF150
:1062E000020E1C44241AB6B2B4FBF9F009FB1044A8
:1062F00046EA044400FB0CFCA44507D91C1900F134
:10630000FF3670D2A4456ED902381C4440EA0E40D4
:10631000A0FB02E6A4EB0C04B442F446B14659D308
:1063200056D0002D6ED0B8EB0C0364EB0904CB40C3
:1063300004FA07F71F43CC40C5E9007400214AE77F
:10634000C2F1200024FA00F10CFA02FC06FA02F372
:1063500026FA00F04FEA1C4741EA0306B0FBF7F1CA
:106360001FFA8CF307FB110E300C40EA0E4001FBC4
:1063700003FE864504FA02F408D91CEB000001F183
:10638000FF3832D2864530D902396044A0EB0E0086
:10639000B6B2B0FBF7FE07FB1E0046EA00460EFB56
:1063A00003F0B04209D91CEB06060EF1FF3818D2F3
:1063B000B04216D9AEF1020E6644361A4EEA0141D9
:1063C00037E72946284606E70646E4E61846F9E692
:1063D000F045A6D2BEEB020C66EB030301389946EA
:1063E0009FE7C646E9E7304690E74146CEE7D64606
:1063F00078E76444023845E7AEF1020E66442CE7C4
:10640000084603E72946E6E6704700BF00000000A3
:1064100073B53E4DD5F81C31996811F001011FD1BB
:1064200001AA40F6034006F07BFB044600286AD12F
:10643000019B9B681B7883B905F1940318461EF0F5
:106440003CFCBFF35B8F00F0050053E8002F43E8EE
:1064500000010029F9D1BFF35B8F019817F07CFD93
:1064600001AA002141F2030006F05AFB044600286D
:1064700049D1019B26489968082201311EF05BFA38
:10648000019817F069FD214601AA41F2010006F0CA
:1064900047FB0446002836D1019883685A7885F86E
:1064A0003420D9789A7842EA0122EA861A7985F866
:1064B0003520197ADA7942EA01222A875A799B79BA
:1064C00042EA03236B8717F047FD214601AA41F2F8
:1064D000020006F025FB0446A8B9019B0D48996807
:1064E000402201311EF027FA95F86630019843F0FA
:1064F000060385F8663017F02FFD95F840305A06F0
:106500000AD46FF01204204602B070BD00000020D3
:106510003C00002044000020214601AA42F2030072
:1065200006F0FEFA04460028EDD1019BB2489968B6
:10653000082201311EF0FFF9019817F00DFD2146E8
:1065400001AA42F2020006F0EBFA04460028DAD172
:10655000019B9B68B3F80120A5F8C42091B221B13A
:10656000DA78A648114621F0B0FE019817F0F4FC45
:1065700095F8406016F0200600F01A8195F860301A
:106580001B0712D501AA002142F21C0006F0C8FA2E
:1065900004460028B7D101988368D3F80120D3F8C6
:1065A0000530C5E9282317F0D7FC95F898309E06EA
:1065B00023D50DF1020168461EF014FD04460028A3
:1065C000A1D1042142F2240006F04EFA064600282A
:1065D00000F0F5800421083021F03DF8BDF80030CE
:1065E0000380BDF8023043802246314642F2240047
:1065F00006F096FA0446002885D195F898305C0696
:1066000010D501AA002142F22A0006F089FA0446B8
:1066100000287FF478AF019883685B7885F8E030D4
:1066200017F09AFC082142F2010006F01DFA044618
:10663000002800F0C4800821084421F00CF895F8E7
:10664000981011F0400F024640F2022308BF0323C6
:1066500088074CBF43F02C0043F00C008B0695F8E4
:10666000993048BF40F0400013F0090F95F86630AC
:1066700018BF40F4006003F00603CE0748BF40F0A7
:106680001000062B08BF40F4C07000211EF0D6FB9E
:106690002146002242F2010006F042FA0446002898
:1066A0007FF431AF95F8403098061ED4B5F8C41089
:1066B000D9B901AA41F2050006F032FA04460028D1
:1066C0007FF421AFB5F8C43063B9019B9B685A7859
:1066D000997842EA0122A5F8C4209A8847481146D1
:1066E00021F0F3FD019817F037FC082140F6014036
:1066F00006F0BAF90446002861D00821084420F0C9
:10670000AAFF95F89830D90702466DD538A1D1E98E
:1067100000011EF093FB2146002240F6014006F0E6
:10672000FFF9044600287FF4EEAE014601AA4FF6B9
:10673000014006F0F5F9044648BB019817F00CFC3F
:10674000214601AA4FF6024006F0EAF90446F0B9E4
:10675000019B2B489968022201311EF0ECF8019848
:1067600017F0FAFB95F885305B0710D501AA214692
:106770004FF6034006F0D4F948B9019B21489968C7
:10678000012211441EF0D7F8019817F0E5FB07F03D
:10679000A9FE044600287FF4B6AEEB79002B3FF447
:1067A000B2AE042118481EF091FA06F0D9FDAAE60F
:1067B000022140F66D4006F057F9044610B96FF01B
:1067C0003604A0E60221083020F045FF01230370C3
:1067D00046702146324640F66D4006F0A1F9044667
:1067E00000283FF4CBAE8EE608484FF0005190E70A
:1067F000908800020080002098000020C80000203F
:1068000085000020840000209400002010880002F1
:106810002DE9F041D0E90B35866A5C193034A64287
:106820008846174618D81C4DA3FB050118A3D3E9C9
:106830000023FFF765FCA41B20F07F40C8F8000090
:1068400013A3D3E90023A4FB0501FFF759FC20F0B3
:106850007F403860BDE8F0810F4C0DA3D3E90023E1
:10686000A6FB0401FFF74CFC05F1300120F07F404E
:10687000C8F8000006A3D3E90023A1FB0401FFF739
:106880003FFC20F07F403860BDE8F081AFF300802E
:106890008D49FD1A0700000000CA9A3B0000000065
:1068A0002DE9F04FAD4C94F84E608FB006F0010624
:1068B000002800F04A81B6BB94F82D2094F83930B6
:1068C00094F8290004EB820204EB8303FF2100F01B
:1068D0000300D2F83080D3F83C9084F82A1014F0EA
:1068E000E7F894F84E00470700F11B81B8F1000F5C
:1068F00011D09A4841460EF0DBFF98F800305D0653
:1069000005D506210AF096FC002800F0E3819348A3
:1069100049460EF0CDFF98F8003013F00E0F40F00E
:10692000D380636A23B10C2630460FB0BDE8F08FE8
:106930000EF026F98246002800F0DB810EF02CF9DB
:106940008346002800F0DA810FF00AFD0546002892
:1069500000F0D181806F4FF6FF73AB8505F11C030A
:10696000002800F0C28105F16C0205F168010B936B
:106970000AF06CFCB5F8642095F84010C5F83CA10D
:1069800022F4EF6222F0070242F4887242F0010220
:10699000A5F8642095F83D2002F03F0262F07F02E6
:1069A00085F83D2095F8322122F0030285F8322146
:1069B00095F87E2022F01F0285F87E20684A2A661C
:1069C000684AC5F8282100274FF01B1267F3000121
:1069D000EA65062285F84010C5E9137785F83F700F
:1069E0006F866F636F65A5F8C870A5F8CC70C5F8A1
:1069F0000C71A5F81071A5F82471C5F82C71A5F8D3
:106A0000307185F83B71AF67A5F87C70A5F85C71B3
:106A1000A5F8C42095F85E21A5F87C7122F0070244
:106A200085F85E21B5F8DC20C5F8E47002F0FC02C0
:106A3000A5F8DC2095F87E21A5F8E87067F304122C
:106A400085F87E2195F8A62185F8EA7067F3C302E0
:106A500085F8A621A5F8A471A5F8B0710FF0E4FFA0
:106A6000A5F8D6000FF0E6FFD5F8B4113E4AA5F818
:106A7000D8000A40C5F8B4210FF0E2FF95F8B8211C
:106A800060F3020285F8B8210FF0E0FF0B9B636210
:106A9000C4E911AB95F8B831C5F8BC7160F3C50312
:106AA00085F8B83195F82030ED6167F30003C5E94A
:106AB0007277C5E97077C5E9057785F8203015F05C
:106AC0001FF8002840F0088194F828300121C3F312
:106AD00042030DF133008DF833300AF039FD002800
:106AE00000F09E8098F8003003F00F03022B00F1B5
:106AF000FF313BD0012B00F0F38099F801001030FA
:106B0000C000002B40F0DE8098F80130103300EB1D
:106B1000C300DB0000F54D7003F59A7303FB010120
:106B20002FE0C0F3C000324604F14F0114F02CF9FD
:106B3000FF2884F82A003FF4D9AE304613F0D2FF84
:106B4000B8F1000F7FF4D5AEE5E6002E3FF4EBAED2
:106B50000FB0BDE8F04F0EF077BC00BFAC3E002098
:106B6000480148017F4101000000FFF698F801301C
:106B70001033DB0003FB00F000F5AA70642303FB75
:106B8000010194F820306248E461002565F30003B8
:106B900084F8203031232360A1FB00015AA3D3E9FC
:106BA0000023C4E90555C4E90155FFF7A9FAB4F873
:106BB0004C90E0600BF0D8FD0746B9F1000F08D10A
:106BC00098F8005005F00F05A5F10105B5FA85F517
:106BD0006D0994F82800E36865F3000010F00105E2
:106BE00084F8280023D000204A4ADFF82C9104932F
:106BF00002250DF13408019305920321CDE902002D
:106C000006943B460090CDF82080CDF81C902A4693
:106C10000D950BF0DDFC41460EF068F800283CD0E5
:106C2000636A002B3FF47FAE0EF0CCFB7BE63B4A61
:106C30003B48049303F24713A9FB00010694029515
:106C40001360912303FB0911334B0793314B0593D9
:106C50004FF6FF7309924FF0020903930DF13408C8
:106C600029A3D3E90023CDF83490CDF82080FFF795
:106C700047FA3B46CDE900504A46284603210BF02F
:106C800051FC41460EF032F80028C9D194F84E303C
:106C900043F0010384F84E3046E6224A05924AF258
:106CA000D8320092CDE90300CDE90100CDF81C9067
:106CB000CDF8208006943B46012203210D950BF070
:106CC00087FCDEE7062B3FF41FAF4FF4DA734FF477
:106CD0001B7023E7122627E60EF074FB032623E63B
:106CE0004FF4F2734FF47F7018E705F17000A86756
:106CF00039E6072618E658460DF054FF50460DF0C9
:106D000045FF072610E600BF8D49FD1A0700000069
:106D100000CA9A3BA55103003D3E0300043F0020FA
:106D2000002AE784895003002DE9F04FC44D2B68F9
:106D30008BB004460F469046002B00F01282638E03
:106D4000E68E1E4494F812313E4413F00703B6B2A7
:106D500040F09F81B4F8EC90A6EB09021FFA82FB89
:106D6000120400F1F98194F93D20002AC0F2348127
:106D700094F8E83084F8E93094F87C2194F87D3177
:106D800094F8101184F81111934206D094F87E31D2
:106D900003F00703052B00F03A822B68A34204BFDF
:106DA00000232B60D4F80C51002D00F0638128687B
:106DB000002800F05F81B4F81431B4F82EC04268A6
:106DC000C4F80C216345B4F81621B4F8181100F08A
:106DD0001781B4F82CC0EB8315232B710023A5F881
:106DE00006C02A8469842B7729460DF0E1FE0DF058
:106DF000E9FE2368002BC0F2F780E08DB4F814514F
:106E000010FB0BF080B2B0FBF5F115FB01F39BB268
:106E100098421FFA81FAC0F0CE8005FB110140F2C2
:106E2000E243884889B203FB01F1A1FB000182A380
:106E3000D3E90023FFF764F9A8EB0008618E94F909
:106E40003D30A9EB0609D1440F444F446786002B1F
:106E500040F2E24707FB05F6C0F285817A4A7B499A
:106E60007B4840F6F6131BF08FF9404080F3118801
:106E70004FF0030002DF0027B346764AB4F818311A
:106E80007548B4F8161121863244B2FBF6F2A4F824
:106E9000CA2042F2107202FB03633044013BB0FB94
:106EA000F6F0B3FBF6F6B4F81431E38583B2881D2F
:106EB0008342A4F8C660A4F8D23002DD5B1A063B18
:106EC0009BB2A4F8CE3094F812311B0744BF0023C4
:106ED000A4F8C8300221012016F088FD002202210A
:106EE000814601200AF002FA5C494FF4EA7220461A
:106EF0000AF08CF900F1030A5FFA8AFA584B009401
:106F00005246012100200BF0EDFB30F002030CD0C3
:106F10004D4A54494E4840F625231BF035F9404070
:106F200080F311884FF0030002DF464EABFB066B87
:106F300041A3D3E9002330465946FFF7E1F808940E
:106F400020F07F4506944848E3680493A5FB0001C0
:106F5000072303FB0511454B0793454B0593301A57
:106F60004FF6FE736BEB010103934FF47A7200232B
:106F7000FFF7C6F84346CDE901500097524601217C
:106F800000200BF025FB30F002030CD02E4A3549CF
:106F90002F4840F63F231BF0F7F8404080F311885C
:106FA0004FF0030002DFB9F1000F40F0278148469F
:106FB0000BB0BDE8F08F1B1A224940F2E24003FB00
:106FC00000F0A0FB01011CA3D3E90023FFF798F810
:106FD00020F07F40804431E794F8DD20002A3FF420
:106FE000C7AE84F8DD30C7E6D4E9012123F00043C1
:106FF00091422CBF884490442360A8EB0308FCE630
:10700000B4F830C094457FF4E4AE40F2E24C0CFB9F
:1070100003FE42F2107C0CFB01EC0CF1FF3CBCFBCC
:10702000FEFCB4F8C6E01FFA8CFCE6457FF4D1AE56
:1070300001232B71D8E600BF8D49FD1A070000001F
:107040004848002000CA9A3BC4970400E09404001A
:1070500080940400FF5962027FC3C901243F0020CD
:10706000B95B0300A49804008D49FD1A615B03001D
:10707000999F0300764A7749774840F67A131BF0C8
:1070800083F8404080F311884FF0030002DF286846
:1070900091E601200DF09CFD0746002800F0C98014
:1070A0006E480AF07DF80546002800F0C2800DF019
:1070B000ADFD2B793A68D4F80C11516043F003030D
:1070C000C4F80C7100212B710C236B71E97194F8D9
:1070D00020312B72238ED4F81C211E44604BA3FB5D
:1070E0000232B4F81431A5F80B30920AB4F8163114
:1070F000A5F80920A5F80D3094F81221B4F818313C
:10710000A5F80F300636D4F8BC31B6B261F30202EE
:10711000A4F8EC6084F81221A5F81160002B7CD053
:1071200094F85E21900778D494F8B721D10774D4ED
:10713000D4F8C821934204BF1A68C4F8C821D4F80F
:10714000C021002A6CD11A682A601D602B68C4E92E
:1071500070550BB9C4F8CC516FF043000BB0BDE8CB
:10716000F08F2860EBE5626CE36C02FB1B33E36499
:1071700014F018FD054694F8DC00C0F3820014F00A
:1071800013FD054406FB05F5364B94F8202105F563
:10719000742505F23F25A3FB0535AD0C07FB02F274
:1071A000E36C626505FB0AF072080344963A934269
:1071B00028BF13466564A6EB050B2B4DC4E91223CB
:1071C0000023C4F8E430A0FB05011FA3D3E900238A
:1071D000FEF796FF2249A8EB0008D4F81C01A1FB9A
:1071E0000030800A07FB00F017A3D3E90023A0FBBF
:1071F0000501FEF785FF20F07F473EE6012210469D
:1072000002210AF073F800200BB0BDE8F08F0023D4
:1072100084F87D21A4F8CC30BFE5D4F8C0216AB150
:10722000D4F8C4311A682A601D602B68C4F8C451B0
:107230008FE76FF036000BB0BDE8F08F2B60C4E92C
:107240006F55C4F8C45184E78D49FD1A070000004A
:10725000C49704009098040080940400CC48002057
:107260005917B7D183DE1B4300CA9A3B00000000C8
:107270002DE9F04F95B01D460B902846136850F845
:107280000C8B1F680C4692462E31032205F108092B
:107290001DF051FB05F11C06042204F12A014846A9
:1072A0001DF049FB052204F13A0130461DF043FB75
:1072B000304605210AF04CF995F8213000F03F00E6
:1072C00060F30503012885F821300AD994F83F209E
:1072D00002F01F03053BC2F304010B2B85F82210BB
:1072E00002D915B0BDE8F08FDAF8003000219960BE
:1072F000A68E6E8294F8371094F8363043EA012354
:10730000AB8298F8DC30520962F38403628E88F80D
:10731000DC300D9214F046FC0C9098F8DC00C0F3C1
:10732000820014F041FC0C9BC34AA98A40F2E24B54
:10733000B6B20BFB06F6184406FB00F0BF4B00F597
:10734000742000F23F20A3FB003094F831300BFB97
:1073500003F3EB637308800C963BA862EB62238F08
:10736000ADF83A3018463244B54BB2FBF6F2A8F805
:10737000CA2082B242F2107000FB02623344013A2A
:10738000881DB2FBF6F2B3FBF6F3A8F8C6209AB25A
:107390008242A8F8D22002DD521A063A92B2494639
:1073A000A8F8CE2008F1E00004221DF0C4FA237FE3
:1073B00004F11E0BC3F380135946062212A8119341
:1073C0001DF0B9FA237F4FF48072A28397F82A0048
:1073D0009AF81290C3F340120F920C9213F06AFEC7
:1073E0000146062204F12B00002940F0EC801DF03C
:1073F000CDFA04F11F02B9F1FF0F04F12503109239
:1074000000F0EA8059464846109313F0E1F8109BCB
:107410001846A37F023312A9A37706221DF08BFA28
:1074200098F8DC306A8A6286AA8AA286C3F382034D
:10743000BDF83A2084F83830E28640460EF09CFFD2
:1074400021462882E080DAF804400B980DF0B0FB6A
:107450002B8AE380182323710C9B2068002B00F0FB
:10746000B78095F821302A8943F0400385F8213010
:107470006B8953406B840123237721460DF098FBE1
:107480000DF0A0FB95F84900012100F0070014F071
:107490008FFA83466B484FF0000931230BF25241BB
:1074A000C8F80030C8E9019961A3D3E90023A1FB22
:1074B0000001FEF725FEAB6ADAF80C40F61A0D9BC8
:1074C00040F2E24101FB034420F07F4004F28634A5
:1074D000A4EB0B034A460221C8F80C0001200B93D1
:1074E00009F004FF38460EF06BF9821C564B0097EA
:1074F000D2B2484601210BF0F5F8012800F0828055
:1075000097F82830DB0775D440460EF035FFDFF8DA
:107510003491A6FB094646A3D3E90023054631462C
:107520002046FEF7EDFDDAF80830CDF81880A3F11B
:10753000310A464B0793464B05934FF4B6730893B5
:10754000D8F80C3020F07F4742484FF0000BCDE9CF
:1075500003B3A7FB00010723201A03FB071166EB07
:1075600001014FF47A720023FEF7CAFD0B9BCDE9AF
:107570000170A3FB09012EA3D3E90023FEF7C0FD90
:10758000033520F07F40EDB2009053462A4601219A
:1075900058460BF01DF830F002030CD02E4A2F494C
:1075A0002F4840F26D131AF0EFFD404080F3118830
:1075B0004FF0030002DF01220221104609F096FE7F
:1075C00015B0BDE8F08F04F124011DF0B4F910E707
:1075D0009DF83C30237750E71846062200211DF025
:1075E000D5F99DF844301098A37712A906221DF012
:1075F000A2F915E7002301220093184611460BF06B
:1076000071F881E70DF0B0FB87423FF479AF124A81
:107610001449134840F2FD131AF0B6FD404080F3C0
:1076200011884FF0030002DF6AE700BFAFF300806C
:107630008D49FD1A07000000FF59620283DE1B43DB
:107640007FC3C90100CA9A3B5D9F03002D9F0300C1
:10765000999F03008D49FD1AD8990400A49804004D
:1076600080940400309A04002DE9F04F8FB0DFF8C9
:10767000D8800A900DF137010DF136000DF010FBA6
:10768000324F9DF836A09DF837B00BF06DF8D8F862
:107690000040A4FB07542AA3D3E9002381462146D6
:1076A0002846FEF72DFD0A9B0B90D8F804000693A0
:1076B000274B0593002622A3D3E90023A0FB070153
:1076C000CDE90766FEF71CFD0B9B20F07F40CDE95E
:1076D0000360204823F07F47A7FB00010723281AF7
:1076E00003FB071164EB01014FF47A720023FEF7EC
:1076F00007FD0096CDE901704B465A4603215046DE
:107700000AF066FF30F0020416D1134A1348002332
:1077100019F058FE68B19DF837209DF836000094A6
:10772000234603210AF0DEFF6FF03B000FB0BDE8F7
:10773000F08FD8F80C00F9E76FF04700F6E700BFCC
:107740008D49FD1A07000000A452002000CA9A3B90
:107750004DEB03008D49FD1A447B0B00B452002011
:1077600038B50F4D04460AF0FFFFA9680AF0FEFF86
:107770006968B0FBF4F404440A4807A3D3E9002382
:10778000A1FB0001FEF7BCFC20F07F40844294BFC7
:107790000020012038BD00BF8D49FD1A0700000000
:1077A000A452002000CA9A3B07B520F068FE4FF4AF
:1077B0007A72A0FB020302FB0133C00B40EA434094
:1077C000064B4FF40042186000230548CDE9002322
:1077D0001AF0ECF8002003B05DF804FB2826002026
:1077E000F80A00200949BFF35B8F51E8003F43F0DE
:1077F000010241E800200028F7D1BFF35B8FDB07CF
:1078000003D40348083920F022BC7047E00100206F
:107810008025002008B5044B187800F07BFABDE8FD
:1078200008401AF0D5B900BFDA760020044B1A7868
:10783000824202D01870FFF7EDBF0020704700BFF2
:10784000DA76002008B520F01AFE4FF47A72A0FB19
:10785000020302FB0133C00B40EA4340034B1860B4
:10786000BDE808400020FFF7E1BF00BF2826002048
:1078700008B520F004FE4FF47A72A0FB020302FB6D
:107880000133C00B40EA4340064B1B68C01A47F265
:107890003053984204DDBDE808400120FFF7C6BF21
:1078A00008BD00BF2826002030B5184C8DB000223E
:1078B000002303A9204619F093F808B10DB030BD9C
:1078C000059DDDE903011AF05FF9B5FA85F56D094B
:1078D000FF238DF8183007908DF8205020F0CFFD51
:1078E0004FF47A72A0FB020302FB0131C00B40EAA5
:1078F0004140C90B8DE8030006ABCDE90A010FCB6F
:1079000000F014FA1AF064F9D1E700BF640C00200B
:107910001FB583F00103CDE9011203930D4801A9BE
:107920000022002319F00AF8BFF35B8F0A4951E8DF
:10793000003F43F0010241E800200028F7D1BFF3E7
:107940005B8FDB0703D40548083920F080FB05B0C6
:107950005DF804FB640C0020342600208025002004
:1079600038B518F03FFE044680B10B4B0B4A00259A
:10797000C3E901251D60836809491B689847A3680E
:107980009B6833B120469847284638BD6FF01500F4
:10799000FBE71846F9E700BF2C260020A978020073
:1079A00011790200094A52F82030013342F82030A0
:1079B000074A0123834010780343DBB21370054A62
:1079C00050785370181A18BF0120704738260020CD
:1079D000DB760020D10900200D4A52F82030002B20
:1079E00012DD013B42F820300A4A2BB901238340C3
:1079F000107820EA03001070074B107859785870FF
:107A0000401A18BF012070476FF01500704700BF83
:107A100038260020DB760020D10900200449054BE0
:107A200009785A7808435870801A18BF01207047A7
:107A3000DB760020D1090020044A054B50781B78E2
:107A40005370181A18BF0120704700BFD1090020D9
:107A5000DB760020A0F1E003072B03D82030C0B272
:107A6000FFF7A0BF064B062213F8011B19B1013A1C
:107A7000FAD10020704703F8010C0028F7D0F8E78E
:107A8000D4090020A0F1E002072A10B4034604D86C
:107A9000203010BCC0B2FFF79FBF064A062000216D
:107AA00012F8014BA34208BF02F8011C0138F7D1BC
:107AB00010BC7047D40900200248082200211CF0A5
:107AC00065BF00BFD209002010B50849002301EBB3
:107AD0004302B2F8014024B10133062BF7D1002054
:107AE00010BDA2F801000028F6D0F8E7C409002074
:107AF00030B50023074C194604EB43020133B2F8BA
:107B00000150854204BF51709170062BF4D10020C2
:107B100030BD00BFC409002002480C2200211CF027
:107B200035BF00BFC509002000487047D1090020BB
:107B300000487047C40900202DE9F041134B144E52
:107B4000A3EB060807460D4606EBC106C8F3C708B7
:107B5000A84504DC0024384620F03DFE13E03268DE
:107B60003B689A420AD1736838461B6898470128D7
:107B70000446EFD0022804D00028ECD101350836A5
:107B8000E6E73D7100242046BDE8F081FCA8040032
:107B9000CCA8040030B58BB0084C204618F022FD6C
:107BA000C568074A23462821684604F047F90122A0
:107BB000291D684602F02AFA0BB030BD3CA1040032
:107BC00046A104002DE9F8434668C76805463068B9
:107BD00018F008FD386000284AD096F8049096F80E
:107BE0000580C468836848F400721B68494698475A
:107BF000002840D12368012202FA09F118F0010F90
:107C000014BF0B438B43236002F05AFB1B4802F066
:107C10008DFA044648BBDFF86880014630224046B2
:107C20001CF0B4FE174B1848C8F8043002F028FACC
:107C30007B7963B901233B7100220023414613483D
:107C400019F0F2FCAB681B680BB128469847F18825
:107C500059B140F2E7304FF47A72002300EBC130A3
:107C60000021FEF74DFA19F067FB2046BDE8F883C6
:107C70006FF01504F9E76FF00404F6E7E401002063
:107C8000E00E0020957B020059A104008025002011
:107C900010B5064C204620F098FB21460448BDE86C
:107CA00010404FF4F012002319F0BEBCE00E00208B
:107CB000802500202DE9F7430C469046144901AA7F
:107CC00099461BF0BCF9E0B1019FD7B9104818F0F4
:107CD00089FC012CC668054616D12246311D48464E
:107CE000C047002806DB7471347928462CB119F09E
:107CF00085FF384603B0BDE8F08319F091FF2046B8
:107D0000F8E76FF00100F5E76FF01500F2E700BF4C
:107D10003CA1040010B50C210446042019F014FF06
:107D2000014A0260047210BDF08B040084B070B58B
:107D300004AC84E80F002021042019F005FF04465C
:107D4000074B44F8083B04AD06460FCD0FC495E839
:107D5000030084E803003046BDE8704004B070477B
:107D6000F48B04000268034B9A420CBF08300020D9
:107D7000704700BFF48B04007FB56C4684E80F00A9
:107D80001821042019F0E0FE0546054B45F8083B94
:107D9000064694E80F0085E80F00304604B070BD39
:107DA000F88B040084B070B504AC84E80F00202187
:107DB000042019F0C9FE0446074B44F8083B04AD03
:107DC00006460FCD0FC495E8030084E80300304653
:107DD000BDE8704004B07047FC8B04000268034BA0
:107DE0009A420CBF08300020704700BFFC8B040093
:107DF00010B50C210446042019F0A6FE014A0260C9
:107E0000047210BD048C040013B56C4684E80300B2
:107E10001021042019F098FE0246054942F8081B7B
:107E2000034694E8030082E80300184602B010BD40
:107E30000C8C040010B50C210446042019F084FEBB
:107E4000014A0260047210BD108C040010B50C21B0
:107E50000446042019F078FE014A0260047210BD45
:107E6000148C040082B038B504A981E80C000546E2
:107E7000114818F0B7FB0446A0B16B68012B0CD079
:107E8000022B05D0A3B9BDE8384002B019F0F3BE0B
:107E900019F0F8FE00282046F5DCBDE8384002B0B5
:107EA00019F0E2BE6FF00400BDE8384002B0704740
:107EB0006FF02200F8E700BF3CA1040082B010B5CB
:107EC00002A981E80C0004460A4818F08BFB58B15F
:107ED0006368022B06D119F0D5FE0028CCBF002024
:107EE00001206060002001E06FF00400BDE8104058
:107EF00002B070473CA104001FB520BB11B900209F
:107F000004B010BD11490A6842F001039A420B60A7
:107F1000F5D04FF48073ADF8003020F0B0FA4FF494
:107F20007A72A0FB023002FB0101DB0B43EA414302
:107F3000C90BCDE9023104AB13E90F00FFF71CFFB9
:107F400019F046FEDBE76FF01500D9E76026002048
:107F50002DE9F04F9A46234B884615468A180C2186
:107F600001FB023393E807008DB005AC84E80700FD
:107F7000DDE9166718F036FB814670B3CDE9088558
:107F8000CDE90A67059818F02DFB8368D3F804B093
:107F9000BBF1000F09D00CAB13E90300DDE90823A6
:107FA0008DE803002046D847A0B9D9F808301B78DF
:107FB000022B14D8CDE90A670CABCDF808A013E961
:107FC000030042468DE803002B462046CDE9088594
:107FD00019F0D4FE0DB0BDE8F08F0120FAE76FF084
:107FE0002200F7E7708C040073B5104B06460C4670
:107FF00015461AB10E4A126843F8212053F824108E
:10800000002019F0ABFE18B96FF0220002B070BD6D
:10801000DDE906230021CDE9002330462B46224628
:10802000FFF796FF0028F1DDEEE700BF6426002091
:108030006026002007B5094B1A78094B8DF80020FF
:10804000162102FB0133019302AB13E90300FFF792
:10805000DBFE03B05DF804EB19F0BABDDC7600205E
:10806000DE76002002490348012201F0CFBF00BFA5
:10807000DC760020A1A20400014600F10803BFF352
:108080005B8F53E8002F42F0010043E8000CBCF185
:10809000000FF6D1BFF35B8FD30702D401481FF066
:1080A000D6BF70478025002070B503788AB004469B
:1080B0000E4607AD032B20D8DFE803F002191B1D85
:1080C000114928461CF0F8FB63780493A3780393C6
:1080D000E378029323790193637900930B4AA379A0
:1080E00005951E2130461AF05CF80AB070BD0849AB
:1080F000E7E70849E5E70849E3E7084A0A2128468F
:108100001AF04FF8E0E700BFB4A20400DDA20400BB
:10811000BBA20400C2A20400CCA20400D6A20400A8
:108120002DE9F0438BB00D4616461F496A460446BA
:1081300098461AF084FFF8B10098E8B10A2201A924
:108140001CF041FB019B1F7857BB162D28D1C4B2F0
:10815000042C25D8DFF854906C432A4609EB04011F
:108160004046B047002818DD04F10F0002A948443A
:10817000FFF79AFF002010E00D496A4620461AF0EA
:108180005EFF50B1009B002BF4D1012D08D10949AD
:108190002A464046B04700EAE0700BB0BDE8F083E5
:1081A0006FF01500F9E700BF00A30400DE760020A1
:1081B000A5A20400DC76002010B588B004461DF0AE
:1081C00004FB6946FFF770FF0A48FFF755FF20469A
:1081D0001DF0FBFA084B09491B78162202FB03111C
:1081E0000F3107221CF096FB10B90548FFF744FF3A
:1081F00008B010BD3C020020DC760020DE760020B6
:108200003002002007B50A4B0A481B78162202FBF1
:1082100003006946002307220F300093CDF8033096
:108220001CF078FBB0FA80F0400903B05DF804FB65
:10823000DC760020DE7600202DE9F04104468CB08B
:108240000D464FF016080F4F04A9284614FB08F6F8
:10825000FFF72AFF06F10F002946072238441CF0D9
:108260006AFB22460849684603F000FE4246B919F7
:10827000684601F0CBFE0548FFF7FEFE0CB0BDE8F6
:10828000F08100BFDE76002009A304003002002048
:1082900037B50E4B0E4C1B78162202FB03440F34ED
:1082A00000250722694620460095CDF803501CF0B2
:1082B00031FB48B12146284605F03AFF20B11DF0B8
:1082C00043FA012003B030BD0020FBE7DC7600203C
:1082D000DE760020F0B58DB0FFF794FF044610B9AC
:1082E000FFF7D6FF00B90224204D287804EB0010D8
:1082F000112805DC02282DD010280AD0002405E022
:10830000202806D012284FF000040AD020460DB0D5
:10831000F0BD05F099FA00232B7004460028EDD03B
:10832000F4E705F091FA2C7004460028EED1104FC6
:108330000FCF02AE0FC63B680E4933600422009493
:10834000234602A805F072FA04460028DED1022373
:108350002B70D3E7064E0FCE07AC0FC433682360F3
:10836000002304490093042207A8EBE7DD760020F0
:10837000308B0400808C040030B591B005461DF0B0
:1083800024FA08A90446FFF78FFE01A9284605F044
:1083900023FF9DF80530012B05D1FFF733FF214660
:1083A00018B904F0A5FD11B030BD034B1878FFF7E4
:1083B00043FFFFF78FFFF6E7DC76002030B58BB088
:1083C0000D4604461DF001FA02A9FFF76DFE154B9C
:1083D00000221A701DB1FFF77DFF0BB030BD124AAD
:1083E000506991696B4603C3694620461DF038FA0F
:1083F000022120461DF0EEF8FFF76CFF20461DF02D
:10840000E4F90A4B0A491B78162202FB03110F31CB
:1084100007221CF07FFA0028DFD10648FFF72CFE68
:10842000DBE700BFDD760020308B0400DC76002027
:10843000DE760020300200207FB5002004F0A2FF8D
:10844000044688BB01F03CFF194801F06FFE04466A
:1084500050BB184B0146302218461CF097FA164ABA
:108460004260164801F00CFE154801F009FE254651
:10847000E8B20021013504F03BFD0A2DF8D1114E80
:1084800000252A463146684603F0F0FC013568466F
:108490001AF0D1FD052DF4D10B4805F0B9FC0B48BD
:1084A00005F0F8FFFFF716FF204604B070BD00BFCF
:1084B00018020020100F00206580020019A304009C
:1084C0001DA3040009A30400FC01002048020020B1
:1084D000034B04481B78162202FB03000F30704741
:1084E000DC760020DE76002013B5044683682B215D
:1084F000DB689847A8B9A3686A461B692B21204608
:10850000984770B9084C009B22789A4209D0D8B29B
:10851000207000F0FBFC20B92078FFF78BFC19F0ED
:1085200057FB02B010BD00BF4C770020014B18680C
:10853000FFF7DABF6826002013B50C4818F052F890
:108540000B4A106070B1FFF7CFFF044638B94FF403
:10855000F01200230748CDE9002319F027FA20463E
:1085600002B010BD6FF01204F9E700BF2FA30400A2
:1085700068260020300B00200949BFF35B8F51E8CB
:10858000003F43F0010241E800200028F7D1BFF38B
:108590005B8FDB0703D4034808391FF058BD7047D1
:1085A000780200208025002010B50A480A4C18F0F7
:1085B00019F8206058B1094B09494C2215F0C6FD45
:1085C00020681FF08FF8074801F0B8FA08B16FF083
:1085D000150010BD37A304006C260020A08C0400F9
:1085E0003DA30400E98502000A4B0B491870BFF354
:1085F0005B8F51E8003F43F0010241E80020002872
:10860000F7D1BFF35B8FDB0703D4044808391FF0B1
:108610001EBD7047E1090020840200208025002053
:10862000014818F0A9BE00BFA40C002038B5144BB7
:108630001B7804460D460B2B0BD8DFE803F01E1EFB
:108640000A0A1E060A0A0A0A0A1EBDE838401AF07B
:10865000F7BB4FF4767200230A4818F0B3FE0A48BD
:108660002146006800232A461FF046F8044610B150
:10867000044818F081FE204638BD6FF01204FAE776
:10868000E1090020A40C00206C260020084B1B7878
:10869000042B0AD004D8022B34BF012002207047DB
:1086A0000B2B14BF0220002070470020704700BF32
:1086B000E10900201FB54C240294044C0194BDF83C
:1086C000184000941EF06EFA04B010BD89A3040097
:1086D00008B50449044805234FF4007218F07EFFE2
:1086E000002008BD40780020400F0020014600F126
:1086F0000803BFF35B8F53E8002F42F0010043E80B
:10870000000CBCF1000FF6D1BFF35B8FD30702D48E
:1087100001481FF09CBC7047400F0020F0B5134E7D
:10872000134F89B0002200236946304618F058F9EB
:10873000054608B109B0F0BD19F00DFC044600284B
:10874000F8D01822294602A81CF020F908230DEBC6
:10875000030120460397CDF810D0ADF8143007F090
:108760004DF920461CF0F0FFDCE700BF3C0C002078
:10877000288D04002DE9F041134FDFF850808AB0B6
:1087800001AE002200233146384618F029F905468B
:1087900010B10AB0BDE8F08119F0DDFB04460028F5
:1087A000F7D01822294604A81CF0F0F80C2304A9DD
:1087B0002046CDE90586ADF81C3007F01FF92046AC
:1087C0001CF0C2FFDDE700BF140C00208C8D0400FC
:1087D00037B5054640F6CD42014600230C4818F057
:1087E000ADF8044678B110F10B0F09D10022002337
:1087F0006946074818F0F4F82846FFF7E9FF0446F1
:10880000204603B030BD0348FFF770FFF8E700BF14
:108810003C0C00203C03002030B5054685B040F6F6
:10882000CD42014600230C4818F088F8044678B180
:1088300010F10B0F09D10022002301A9064818F0FE
:10884000CFF82846FFF7E8FF0446204605B030BDC4
:108850000248FFF74BFFF8E7140C0020300300201C
:1088600008B5FFF761F9094A127822B1012A07D049
:108870006FF0220008BDBDE808400921FFF7D6BE11
:10888000BDE808400130FFF7A3BF00BFEA090020A0
:1088900008B5FFF74DF9094A127822B1012A07D02D
:1088A0006FF0220008BDBDE808400D21FFF7BEBEF5
:1088B000BDE808400130FFF7AFBF00BFEA09002064
:1088C00002490348012201F0A1BB00BF4E770020FE
:1088D000D5A3040010B501F0F3FC094801F026FC13
:1088E000044650B9074B3022014618461CF04EF89A
:1088F000054A4260054801F0C3FB204610BD00BF99
:1089000048030020E00F0020C1880200E9A3040012
:1089100038B5FFF7BDFCC8B1FFF7B8FE02281BD180
:108920000F4B1C780F4D2B78A34217D0FFF7C4F8DC
:10893000FFF7F2F8FFF794FFFFF7AAFF20462C702D
:10894000FFF756FABDE8384019F042B9FFF79EFE2E
:10895000841E18BF0124E5E70124E3E738BD00BF0A
:108960004E770020EA09002070B50C4615460A49EA
:1089700000221E461AF063FB50B1012C09D10749B1
:1089800022463046A847002802DDFFF7C1FF00203D
:1089900070BD6FF01500FBE7DFA304004E770020E9
:1089A0000148FEF7DDBF00BFF3A3040030B50A4C59
:1089B0000A44914200D130BD11F8013B58400309EF
:1089C000E35C83EA0013DDB2C3F30313E05C80EAE7
:1089D0000510C0B2EDE700BFF9A304000B68013336
:1089E0000B60014B1B6818476003002007B50B465E
:1089F000002102460191034801A900F0F9F803B0F3
:108A00005DF804FBDD89020030B585B0CDE90101D8
:108A10000446002501A90548039500F0E9F8DDE9C1
:108A200002309842B8BF255405B030BD6321040020
:108A30002DE9F84FB0F8189019F00808044693464D
:108A40000DD001290CBF49F0100949F02009A0F808
:108A500018908BF31188BFF36F8FBDE8F88F09F082
:108A60000709022907D1204619F0C2FB0028F0D0DF
:108A70000128238B4ED16769218B002F15DA2568D9
:108A800021F00701C4E9008841F00101218300269B
:108A9000218B01F0070ACA4502D0A368002B5AD1E6
:108AA0000DB9002E71D0002356E001F007035A1FC4
:108AB000012A1ED821F00701062B256889B2C4E9D6
:108AC00000880AD13DB1638B2A46126801339BB2FC
:108AD000002AFAD1638341F002012183204619F074
:108AE00087FB06460028D3D0238B43F02003238343
:108AF000CDE7042B0CD121F0070189B22183204658
:108B000019F076FB05460028C1D041F020012183F1
:108B10000025BCE7032809D1226923F00703166862
:108B200043F00603238300252F46B1E7042806D12E
:108B3000226923F00703566843F00403F2E705288F
:108B400006D1226923F00703966843F00503E9E79D
:108B500000252E46E8E7012341F0080121838BF32D
:108B60001188BFF36F8FFBB985BB16B11F49204633
:108B7000B0474FF02003EFF3118B83F31188BFF35D
:108B80006F8F238B23F008032383238BDA0625D5ED
:108B900023F0100323830121B4F8189009F007098A
:108BA00000297FF45EAF54E7A1680029DCD0D1F83A
:108BB0000090D1F804B03B4652462046D847B9F160
:108BC000000FD1D04946D9F80090F2E729463B463C
:108BD000524620462D6819F027FBC5E713F0200107
:108BE0001EBF23F0200323830221D5E75522040072
:108BF0002DE9F04F8DB000241F46531E06468946CE
:108C00000B9407934FF0FF35A0464FF0000A0AE09F
:108C1000BAF1000F11D1252800F042814946B04732
:108C20000B9B01330B93079B13F8010F079300284D
:108C3000EED10B980DB0BDE8F08F7A280AD86228E3
:108C400012D8302854D047D8252800F027812D2865
:108C500000F02D8149462520B0470B9B01330B9333
:108C6000079B4946187814E1A0F16303172BF1D84C
:108C700001A252F823F000BF8D8E0200358D020054
:108C8000558C0200558C0200558C0200178D020095
:108C9000358D0200558C0200558C0200178D0200A4
:108CA000558C0200558C0200558C0200C38D0200C9
:108CB000558C0200558C0200698E0200558C020012
:108CC000358D0200558C0200558C0200C38D0200C8
:108CD000558C0200178D020039280FD95828B9D1B8
:108CE0006C2C40F0B58057F8042B4FF0000B99E046
:108CF000002D03DAB8F1000F00F0DC8025EAE575FD
:108D00000A2303FB0505B8F1000FA5F1300508BFE4
:108D10004FF0020887E7682803D1682C06D1482461
:108D200081E76C2802D16C2C00F0C780002C91D117
:108D3000044678E77A2C07D1BA465AF8042B9346B2
:108D4000D71775282ED112E06C2CF5D04C2C07D1FA
:108D5000073727F00707BA467F685AF808BBF0E7DD
:108D6000752807F1040A1AD1D7F800B00027B8F126
:108D7000030318BF0123B8F1010F0CBF30222022DA
:108D8000CDE901320BA90A23CDE9035100935A46DC
:108D90003B464946304619F0F4FD574635E73A68F8
:108DA0009346D717002FE2DA49462D20B0470B9B98
:108DB000DBF1000B03F101030B9367EB4707013D68
:108DC000D5E770288CD157F8043B3D493D484FF01A
:108DD000000B5B451A460CBF8A4682461AF8010B07
:108DE0004946CDE90832B0470B9801300B909AF80C
:108DF0000000DDE908320028F0D193B9A5F1050A99
:108E0000B8F1030F7FF401AFBAF1000F7FF7FDAEA9
:108E100049462020B0470B9B01330B930AF1FF3AE0
:108E2000F2E7023DB8F1030318BF0123B8F1010FC7
:108E30000CBF30202020CDE901300BA91023CDE953
:108E40000351009349465B46304619F09AFDDCE633
:108E50004C2C7FF448AF073727F007031F46D3F8A1
:108E600004B057F8082BDDE757F804ABD3465B4650
:108E70001BF8010B20B9A3EB0A0AA5EB0A0ABFE70E
:108E80004946B0470B9B01330B93F0E757F8040BAF
:108E90004946B0470B9B01330B93B6E64946F8E7CA
:108EA0005446D0464FF0FF354FF0010ABBE64FF075
:108EB0000308B8E64FF00108B5E64C24B3E600BF5E
:108EC00009A404000FA404001FB507240294044C55
:108ED0000194BDF8184000941DF064FE04B010BD6C
:108EE000EB09002010B5084C86B024788DF81740A7
:108EF000012402940DF117040194BDF82040009460
:108F00001DF050FE06B010BDF209002000B589B07A
:108F100064288DF8070019D80E4B1822187000210C
:108F200002A81BF033FD0C4B03930DF107030493D0
:108F300002A901230020ADF8143006F05FFD10F106
:108F4000390F08BF002009B05DF804FB6FF0150071
:108F5000F9E700BFF2090020988E04002DE9F743DD
:108F60000E4680460821C06ADFF84C9019F026FEB4
:108F70003468241A0746346004EA0905AC4203D871
:108F8000002003B0BDE8F08308236A46214640462E
:108F900019F070FD0028F4D1684619F0EFFD40B9D2
:108FA000BDF80230BDF80420346005EA0905134419
:108FB0001D44E41BE2E700BF0000FFFF2DE9F04F76
:108FC000044693B0C06A082119F0F8FD63681B0CD1
:108FD0001B04804601A9E089019319F0E4FD019B7F
:108FE000A1891944A1EB0801082304AA2046029193
:108FF00019F040FD0028C0F28380E36A04AA1979C1
:10900000002312F8010B81426CD10133082BF8D1F7
:109010000199204619F08BFD72E0029BBDF81220E9
:109020001B0C1B0413440293DFF8DCA0DDF808904E
:1090300006AA02A9204619F0CBFD002860D106A897
:1090400019F09CFD80BB6368039308AA03A920461E
:10905000039D19F0BDFD002852D1BDF82020BDF8B8
:1090600018309A4223D06268039B9A42EDD14D4555
:109070001AD1BDF81C30BBB1BDF81A3009EA0A0696
:109080001E4406A8A368ADF81A3019F083FDE36A00
:10909000BDF81C701D686D4205F020056FB906A96A
:1090A000204619F043FE58BBC145BFD1B0E708A820
:1090B00019F064FD0028D6D1D9E7BD42AB4628BFE0
:1090C000BB465B460AAA3146204619F0D3FCB8B924
:1090D0005A460AA9204619F016FE88B9A7EB0B07D5
:1090E0005E44DBE70298A0EB080804A819F046FDEF
:1090F000002892D002A92046FFF730FF002893D025
:1091000013B0BDE8F08F00BF0000FFFF2DE9F0476E
:10911000044686B00D4600F1140630461EF013FFDB
:10912000284617F05FFAA062002800F0D680836816
:109130001B699847E06228B96FF01505284606B00C
:10914000BDE8F087A06A83681B6998470368013B04
:109150001F2BF1D8A06A216803AA1EF037FC002853
:10916000EAD1A589002DE7D0049BB5FBF3F203FB00
:109170001255002DE0D1E389012BDDD9E36A00957A
:1091800093F804804FF0FF334FF0FF32304617F072
:1091900081FCE06A082119F011FDA9460746E38920
:1091A0001FFA85FA534553D8E3894B4500F0928066
:1091B00053450BD1009908234246C91B204619F09C
:1091C00091FC18B9E089694619F0EDFC009BDFF8C5
:1091D0004491DA1B03EA09036260A360D4E9011336
:1091E00099420ED3082301AA204619F043FC0546F4
:1091F00028BB01AB13F8012B904571D10135082D27
:10920000F8D1D4E901318B4207D95B1A4246204696
:1092100019F068FC051E12DB3ED16368DFF8F4909C
:10922000E08903EA09036946009319F0BCFCA389AD
:1092300000994246204619F055FC051E32DA3046A8
:1092400017F09AFC002D7FF479AF0123237475E7A2
:10925000A1892B04C91B13FA81F142460823204639
:10926000009119F03FFC78B1E089694619F09BFC48
:1092700009F1010900990823424620461FFA89F99D
:1092800019F030FC00288FD0013588E7BAF1000FC3
:109290003CD06FF01C05D2E7E26AA3681268134461
:1092A000A360AEE7CBD06168204619F040FC0546CC
:1092B0000028C4D16368A08903EA09030344A3EB2F
:1092C0004707676007EA0907A7602046FFF776FEB1
:1092D0000546B4E76FF02005B1E76FF005052DE70F
:1092E00001A819F04BFC656880B9009ABDF80630FA
:1092F000BDF808A0E06A02EA09021A44A2605146D9
:1093000019F05CFC0244AA42A260BFD0ED1B65606C
:1093100064E700BF0000FFFF2DE9F04F1E46037C0D
:1093200089B0044689469046002B00F0B280C26A9C
:109330000821104619F042FC31468246104619F0C9
:109340003DFCA3890AEB4A029B1AB3420746C0F0D0
:10935000A3801EB1B8F1000F00F09E8063680393F4
:1093600004AA03A92046DDF80CB019F031FC05462B
:10937000002859D1BDF810304B4505D06268039BD9
:109380009A42EDD1D6B94FE004A819F0F7FB0028B6
:10939000F4D1BDF8143086B1B3420FD1BDF812003C
:1093A0004FEA1B410904014433464246204619F066
:1093B0006FFB002802DC054636E0ABB3002F37D147
:1093C00004F1140A4FF0FF324FF0FF33504617F00C
:1093D00061FBDFF8CCB0E3899D4257D0D4E901238B
:1093E000F9188A4227D3ADF81A3006A8FF238DF862
:1093F0001E30ADF81890ADF81C6019F0CBFB32466A
:109400004146204619F07FFC034638B906A920469C
:1094100019F08CFC002814BF0346334601935046D4
:1094200017F0AAFB019B1D46284609B0BDE8F08F46
:109430005744BFB2C4E70821E06A19F0BFFB4FF6FA
:10944000FF73ADF818300023ADF81C301318ADF8D9
:109450001A30A38902EA0B021A44121A626006A8A3
:1094600019F098FB06A9204619F060FCE089211D3F
:1094700019F099FB636803EA0B03A3602046FFF72A
:109480009DFD03460028C9D10135A4E76FF01B03F9
:10949000C4E76FF00C05C7E76FF01505C4E700BF20
:1094A0000000FFFFF0B5104B104C114D1B1B9B1023
:1094B0006B43104DD5F824C000259D4202D16FF0BA
:1094C0002200F0BD676867450AD3266946B197F860
:1094D00002E00779BE4503D13346BDE8F0401847A6
:1094E00001352434E9E700BFDC0E0020B80E00206F
:1094F000398EE338702600202DE9F041124B134CD1
:10950000134D1B1B9B106B43124DD5F824C0002537
:109510009D4203D16FF02200BDE8F0816668664588
:109520000ED3A76967B196F8028090F804E0F04581
:1095300003D13B46BDE8F04118477679012EF8D0BB
:1095400001352434E4E700BFDC0E0020B80E002013
:10955000398EE338702600202DE9F8430E4D0F4C6C
:109560000F4B641BA41006460F4690465C434FF019
:1095700000094C4502D16FF022000BE06B691BB96A
:1095800009F101092435F4E7424639463046984747
:109590000028F5D1BDE8F883B80E0020DC0E0020CD
:1095A000398EE33807B583788DF800300379427936
:1095B00043EA0223ADF80230C378684603F00303A0
:1095C0008DF8043001F01CFD10F1450F04D018B1E6
:1095D000002003B05DF804FB9DF8000001F096FD4B
:1095E00010F1450F01D00028F2D1024B012083F881
:1095F000B900EEE77026002008B509480378C3F3E8
:1096000041130A3350F823303BB100F1080200F156
:1096100010019847C043C00F08BD1846FCE700BFC3
:10962000702600202DE9F14F254D264C264B641B5A
:10963000A4105C43031F012B06460F4625D8DFF814
:109640008C9099F8B93003B300F056FC042E1CD16D
:109650004FF00008444515D0D5F820B04FF0000A6F
:109660002A7F5FFA8AF39A4203D808F10108243569
:10967000F0E70BEBC3030AF1010A187901F070FD62
:109680000028EDDA002389F8B9300D4D4FF00008BD
:10969000A04508D10D4B1B6A7BB13946304601B05D
:1096A000BDE8F04F1847EB681BB13A4631462846F3
:1096B000984708F101082435EAE701B0BDE8F08FCA
:1096C000B80E0020DC0E0020398EE3387026002012
:1096D0002DE9F04FA94DAB6985B006460C46904682
:1096E00063B9337803F01F03012B00F08880022B4D
:1096F00000F0D18043B16FF0150002E098470028D8
:10970000EFD105B0BDE8F08F72787088D8F80030DE
:10971000092AF0D801A151F822F000BF45970200B4
:10972000F7960200F7960200F7960200F7960200FD
:10973000519702005B970200F7960200899702009A
:10974000939702000020012258701A7002236FE0E4
:10975000C0B201F043FC0020D3E7020A131F012B23
:10976000C9D9072AC7D86B6AC0B200211D78002D5D
:10977000C1D05E78964203D1884200F0F680013174
:109780002B44F3E71B78F6E095F8BA201A70012312
:10979000F1E0C7B28DF80F7077B14FF0FF086C6A37
:1097A0000026C146237853B9EB691BB10DF10F01B7
:1097B00003209847002E9ED085F8BA70CBE76378D7
:1097C000042B0DD0052B0ED0022B06D194F805806A
:1097D0009DF80F30434508BF012623781C44E1E77C
:1097E00094F80390F9E79DF80F304345F5D1B9F1AE
:1097F000000FF2D12046FFF7D5FE0646EDE795F8BB
:10980000BA30002B3FF477AF6F6A96F804903B466E
:10981000197800293FF46FAF5A78022A03D11879DA
:10982000484500F2B3800B44F2E700201870012392
:10983000236066E796F802B0FF26B2464FF00008B4
:109840003B783BB9EB6913B14146072098470020AC
:10985000206056E77B78042B04D0052B0BD03B7897
:109860001F44EDE7BE7897F803A0B145F7D1D34583
:1098700008BFB846F3E7B145F1D1D34507D0B87872
:10988000019019F09EFB019801F06AFCE7E7384669
:10989000FFF788FEE3E73079D8F800708DF80F0005
:1098A00030F0800C1ED0364A364B37499B1A9B103D
:1098B0004B434FF0000E73453FF41DAF116A92F811
:1098C0001C904FF0000804395FFA88FACA4503D3A8
:1098D0000EF1010E2432EEE708F1010811F838A06C
:1098E0008245F1D17378012B12D0032B27D0002BA6
:1098F0007FF401AFBCF1000F04D095F8BA30002B13
:109900003FF4F9AE394601F0E5FB002078701DE721
:109910007388002B7FF4EFAEBCF1000F04D095F8F4
:10992000BA30002B3FF4E7AE01F0B4FBEB69002B3B
:109930003FF411AF0DF10F01092098470BE7738831
:10994000002B7FF4D8AEBCF1000F04D095F8BA30EC
:10995000002B3FF4D0AE01F075FBEB69002B3FF418
:10996000FAAE0DF10F010820E7E7022AC8F800302F
:109970007FF408AF5B882360EDE600BF702600200F
:10998000B80E0020DC0E0020398EE3387078D8F84D
:1099900000300A283FF449AF0B283FF44BAF0028B2
:1099A0007FF4A9AE187058702260AAE637B5134C40
:1099B000237D0546BBB9E268A168019201AB802016
:1099C00019F026FA0199A268E3680A445B1AA260BA
:1099D000E36033B923699D4203DD9B0601D1012376
:1099E000237503B030BD00231A4619468020237525
:1099F00003B0BDE8304001F0D3BB00BF70260020AB
:109A000030B585B00B4600210246019100285ED199
:109A1000002B3AD108220DEB020119F0F4FC0028CA
:109A200004DA802001F00EFB05B030BD2D4C9DF80E
:109A300009306370BDF80A306380BDF80C30A38034
:109A4000BDF80E309DF808202270802BE38006D9E7
:109A5000D10904D1802001F0F5FA0020E2E7224983
:109A60002361C4E90213002121750BB1D309DBD0B6
:109A7000FFF7C2FD0028D4D0E08823698342D4BF19
:109A8000E360E060FFF792FFCEE7164CD4E90215E1
:109A9000002D01AB04DC19F0B6FC0028C4DAC0E7E5
:109AA0002A4619F0B0FC0028D4DB0199A268E368CB
:109AB0000A445B1AA260E360002BB5D104F13803BD
:109AC000A360FFF799FD0028ABD0E088DAE7802893
:109AD000AAD1044BDA6812B91A7D002AA4D0D8881A
:109AE000D0E700BF70260020A8260020054B064ABC
:109AF0009A62064ADA62064A1A63064A58629A610C
:109B00000020704770260020D1960200A594020024
:109B100059950200F9940200074B10B593F8B8402C
:109B200024B900F0AFF918B1FFF7E0FF002010BD35
:109B30004FF0FF30FBE700BF702600202DE9F74310
:109B40000446384D38484FF0FF324FF0FF3316F0DF
:109B5000A1FF95F8B860002E41D134482C62E8612D
:109B600001F034FC01F0FCF9041E39DB00F0E4F9EB
:109B7000041E35DB40236846ADF802308DF80460E2
:109B80008DF8006001F03CFA041E29DB802768464E
:109B90008DF8007001F034FA041E21DB24493046B0
:109BA00001F000FC041E1BDB2149384601F0FAFBE2
:109BB000041E15DB1F4F204C204BE41BA4105C43FC
:109BC000B44214D1002001F0A1FA041E08DB802069
:109BD00001F09CFA041E03DB012385F8B830002451
:109BE000114816F0C9FF204603B0BDE8F083D7F84E
:109BF00020904FF000083A7F5FFA88F39A4202D82B
:109C000001362437DCE709EBC30259F83310107929
:109C100001F0C8FB08F101080028ECD04FF0FF3438
:109C2000DEE700BF70260020000C00202596020011
:109C3000019A0200B80E0020DC0E0020398EE338B5
:109C400030B51C4B89B003AA03F110051868596898
:109C5000144603C40833AB422246F7D11B78237065
:109C60000822002101A81AF091FE122200211248B8
:109C70001AF08CFE082101A819F0D4FB002816DD8B
:109C80000D4901AA002012F8013B08AC04EB1314A3
:109C900003F00F0314F8144C0C7008AC234401308B
:109CA00013F8143C4B70082801F10201EBD1024873
:109CB00009B030BD2DA404004F7700202DE9F04FEE
:109CC0006B4A6C4B9B1A6C4A87B09B1053430446FB
:109CD000019300254FF0011BA9462E46AA46207885
:109CE00020B9664B02349C4217D0F2E76378052B0B
:109CF00005D8DFE803F083040383072BA24623780B
:109D00001C44ECE7E378002BF9D1A3789BB9584ABF
:109D10000199994204D14FF0FF3007B0BDE8F08FB0
:109D200051688C4202F124020AD1514A242606FBD2
:109D30000326B36833B909F101095FFA89F9DEE74F
:109D40000133E5E7494620469847F4E7002EE2D084
:109D500000230121327F9342DDD2326AA77802EBE1
:109D6000C3021079874201D00133F3E70127E0787D
:109D700094F805C000F003008DF81400207940EA43
:109D80000C20ADF8120094F9020000285FFA87F861
:109D900028DA07F1100001FA00F010EA0B0F29D1C0
:109DA00068F07F008DF8100004A8CDE9023219F0A8
:109DB00012FBDDE902320121E0B99DF81030A370F9
:109DC00013F0800F1CBF08F110085FFA88F81371B8
:109DD0000B4615BF01FA08F8BB404BEA080B4BEAEB
:109DE000030B8CE701FA07F010EA0B0F02D18DF894
:109DF0001080D9E70137102FB9D1B5E7032D1DD158
:109E0000FFF71EFF074668B11AF060FD804648B1B3
:109E10001B481AF05BFD804504D142463946A01C20
:109E20001AF089FD23786FF00201E218091B04EB98
:109E30005303D14213D50135EDB260E7002DF1D1C6
:109E4000BAF1000F3FF467AFA4EB0A038AF80230BF
:109E5000C3F307238AF803308AF80490EBE74FF046
:109E6000000002F8010C13F8010902F8020DE0E706
:109E7000B80E0020DC0E0020398EE338B60E00202C
:109E80002DA4040008B50448FFF718FF0028024875
:109E900018BF002008BD00BF240E002010B5094BDC
:109EA00000211A461C78844205D15C681CB144200C
:109EB00000FB012010BD0131042903F14403F1D15D
:109EC0000020F7E72C270020014600F10803BFF32C
:109ED0005B8F53E8002F42F0010043E8000CBCF117
:109EE000000FF6D1BFF35B8FD30702D401481EF0F9
:109EF000AEB8704780250020F8B50E4C04256FF0F1
:109F000047074FF02003EFF3118683F31188BFF367
:109F10006F8F6368103304D104F134006760FFF77A
:109F2000D3FF86F31188BFF36F8F013D04F1440422
:109F3000E7D1F8BD2C270020F8B5094C094F0425BE
:109F40000026C4E90D67E663012204F11C001146F6
:109F50001EF0BBF9013D04F14404F2D12846F8BDDE
:109F60002C270020BB2E0400084B30B51C68084B82
:109F700001461A6800239C4201DC002030BD1046D7
:109F8000103205788D42F9D00133F4E7148F0400C4
:109F9000C4030020084B1B6810B50C462BB1FFF71B
:109FA000E3FF28B12060002010BD6FF00C00FBE73C
:109FB0006FF00100F8E700BFC403002030B589B09E
:109FC0000C4615460190FFF7CFFFB8B143680293E6
:109FD00083682268C068CDE903350023CDE90623F4
:109FE000059319F008F860B1074901AA1DF0F2FCC9
:109FF000079808B9059B236009B030BD6FF01500C4
:10A00000FAE76FF01200F7E7FB2F0400104B2DE981
:10A01000F0411C6805460E461746ACB14FF0FF32C2
:10A020004FF0FF330B4816F035FD63683246D3F826
:10A03000088029463B462046C0470446054816F09E
:10A040009BFD2046BDE8F0816FF00104F9E700BFF9
:10A0500044280020EC0B002000230360044B5A68C6
:10A0600012B9C3E90000704710605860704700BF24
:10A070003C280020014B1860704700BF4428002096
:10A0800030B585B000230546CDE9023301904FF08D
:10A09000FF330C484FF0FF3216F0FCFC0A4B1C68F3
:10A0A00034B1636820461B6801A998472468F7E724
:10A0B000284600F0C9F80446024816F05DFD204627
:10A0C00005B030BDEC0B00203C2800201FB5CDE9C9
:10A0D000010103924FF0FF330A484FF0FF3216F0B0
:10A0E000D9FC094B1C6834B1636820461B6801A980
:10A0F00098472468F7E7034816F03EFD002004B0B7
:10A1000010BD00BFEC0B00203C280020024B0022B9
:10A11000C3E90022704700BF3C280020024B002208
:10A12000C3E90022FFF7F2BF4828002070B51D4C9C
:10A130001D4E0546B44217D31C4E1D484FF0FF324A
:10A140004FF0FF3316F0A6FC3468A4B972680024FF
:10A1500005F114036C61DAB9C6E9003314461448FA
:10A1600016F00AFD204670BD216828681AF0B5FB7C
:10A17000A0B11434DEE7143C002CE7D02168286835
:10A180001AF0ABFB38B114F1140FDFD06469DCE7CF
:10A1900013607360E3E76FF01004E0E76FF0100402
:10A1A000E0E700BFB48A04002C8B0400482800209C
:10A1B000EC0B00202DE9F34107460E4609B10023C0
:10A1C0000B601E4CDFF878800025444508D31D4BFA
:10A1D0001C680CB1143CC4B9284602B0BDE8F0813B
:10A1E000216801AA384618F02AFF60B125B90EB1DE
:10A1F000019B3360254606E029682068002218F09C
:10A200001EFF0028F3D11434DFE7216801AA384685
:10A2100018F015FF60B125B90EB1019B33602546DA
:10A2200006E029682068002218F009FF0028F3D111
:10A2300014F1140FD0D06469CBE700BFB48A0400D6
:10A240002C8B040048280020F8B51A4C1A4F0646FB
:10A250000025BC4206D3194B1C680CB1143C9CB9B8
:10A260002846F8BD1EB9E3684BB91434F1E72068FD
:10A270000022314618F0E3FE0028F4D1F5E79847B4
:10A28000002D08BF0546F0E736B9E36863B914F15D
:10A29000140FE5D06469E0E720680022314618F029
:10A2A000CEFE0028F1D1F2E79847002D08BF054601
:10A2B000EDE700BFB48A04002C8B0400482800207E
:10A2C00010B5064C23783BB9FFF728FF00F064F87F
:10A2D00008B90123237010BD0020FCE7617700203E
:10A2E0002DE9F047048FDFF8ACA0013498B0804628
:10A2F0008946A4B200F10806651EADB2B5F5004F5F
:10A3000045D04A2305AA2946304618F07AFD04F5BF
:10A310007F543F34A4B20746214601230DF10B02BE
:10A32000304618F06EFD002F014603DC002803DCE8
:10A330002C46E1E7002816DCB8F83830AB4209D1EA
:10A3400042466B1E22F8383F4FF40041022330464C
:10A35000FEF7E2FF2946304618F0F9FC2146304668
:10A3600018F0F5FCE4E718AB1F44002307F84C3C59
:10A370005246CDF8009003AB05A80396ADF8104007
:10A3800018F096FE0028D3D018B0BDE8F087002062
:10A39000FAE700BF173104007FB5012369460220A8
:10A3A0000193FFF7F7FD0446002836D102AA01A960
:10A3B0000220FFF703FE10F1130F04462DD038B131
:10A3C0000C3405D0404080F311884FF0040002DFC8
:10A3D0000399B1F5803F23D2009A0023956818466F
:10A3E000084485429CB203D30133082BF8D11C46A4
:10A3F0000D4D5368AB602846D368EC82A982EB63AD
:10A4000018F020FF044640B9084E6E602846FFF75A
:10A4100023FE28466E60FFF72DFE204604B070BD77
:10A420006FF02404F9E700BF50280020C803002083
:10A43000F8B505464FF02003EFF3118683F311883A
:10A44000BFF36F8F094B1C685CB1094FD4E901322F
:10A45000002D08BF13460BB1387898472468002CAC
:10A46000F4D186F31188BFF36F8FF8BD90280020D8
:10A47000982800202DE9F341184F194C3B780146EC
:10A480003BB96D46284618F0F9FE95E8030084E8CC
:10A4900003002578F5B1134E4FF000080120043D6C
:10A4A000C6F80080FFF7C4FF012D98BF0E4B94E85B
:10A4B000030098BF83F800801AF09AFA306840B918
:10A4C000012338703360FFF7B3FF94E803001AF0FC
:10A4D000A2FA2578284602B0BDE8F0816277002014
:10A4E00098280020D80300203978002008B5064BB2
:10A4F000186840B901221A60FFF79AFF034B93E8EE
:10A5000003001AF088FA08BDD8030020982800201C
:10A5100008B504464FF02002EFF3118382F311884F
:10A52000BFF36F8F18F0B7FF204601F0CFFC034850
:10A5300017F02AFE01F05CFAFCE700BF51A404000A
:10A54000084B70B5C31A0D4607499B100446594382
:10A550000648402218F0B2FE2B4601462046BDE8D0
:10A5600070401847B0280020B76DDBB6F409002012
:10A5700073B50C4C0C4A4023041B00930D460B464C
:10A580000A49A41061430646094818F0C3FE011E9B
:10A5900005DA30462B4602B0BDE87040184702B0DD
:10A5A00070BD00BFB028002085330400B76DDBB656
:10A5B000F4090020002270B501210446104601F084
:10A5C000B7F9002001F082F90F4814F041FD0F4B5C
:10A5D000984215D114F04CFDE6680D49304617F04D
:10A5E00056FE00280BDBE46809490125356404F1B7
:10A5F0001C0017F04CFE002801DBE564002070BD54
:10A600006FF00400FBE700BF49A602000000AD0B9D
:10A610003C8F040001460C2309484B4370B5C41815
:10A62000D4E90E5600224033A263184418F033FEDA
:10A630002DB132462B460348BDE87040184770BD27
:10A64000B0280020F409002010B1012804D0704780
:10A65000034B1B6C5B0701D1FFF7DCBF704700BFEA
:10A66000B028002008B54FF02003EFF3118183F3E9
:10A670001188BFF36F8F124A136843F0020013F082
:10A68000010310600CD04FF08042D2F80C34D2F8A5
:10A690000C2413F0010303D00A4818F0FCFD012339
:10A6A00081F31188BFF36F8F23B1BDE8084000200C
:10A6B000FFF7B0BFBDE8084001201DF0BAB900BFE8
:10A6C00000290020F02800207FB500220123CDE9D9
:10A6D000022304ABCDE90433094ACDF800D06B4620
:10A6E000CDF804D018F047FE002805DB4FF4804277
:10A6F0000023684616F066FE07B05DF804FB00BF55
:10A70000A3330400094BBFF35B8F53E8002F22F003
:10A71000020143E800100028F7D1BFF35B8FD30795
:10A7200002D4012014F0B2BC704700BF0029002001
:10A73000024AC3B21C2003FB00207047B02800204F
:10A74000094BBFF35B8F53E8002F42F0010143E850
:10A7500000100028F7D1BFF35B8F930702D40120CC
:10A760001DF067B9704700BF00290020094BBFF3F7
:10A770005B8F53E8002F22F0010143E8001000280E
:10A78000F7D1BFF35B8F930702D4012014F07EBC96
:10A79000704700BF002900202DE9F0413949BFF37F
:10A7A0005B8F0746012251E8003F41E80020002866
:10A7B000F9D1BFF35B8F33B9334934484B60CB6079
:10A7C0008A6017F077FD7B1E012B2FD8012F07D150
:10A7D0004FF08043D3F81C3403F00303012B25D042
:10A7E0001DF083FD044618B9294B1B78002B41D17D
:10A7F0004FF02003EFF3118683F31188BFF36F8FBF
:10A800000124DFF890804FF08045D5F81834D5F852
:10A810001824D2030CD503F00303012B01D0012F20
:10A8200006D10CB386F31188BFF36F8FBDE8F081BA
:10A83000ACB1304601F0EAF8D5F81835002BE4D178
:10A84000D5F80421002AE0D0C5F80431D5F8043148
:10A850000123C5F81835C8F88031AB60D5E7002171
:10A86000212016F069FDE7E74FF080430222C3F88C
:10A870000423DBE74FF080430222C3F80823064697
:10A88000BFE700BF04290020A0280020CC2800201A
:10A890003A78002000E100E000F07F03082B42B28C
:10A8A00004D010F0780F01D000207047002A00F08B
:10A8B0000F0300F0080005DA58B9084800EB431010
:10A8C0004830704738B9054800EB431000F5B470C4
:10A8D0007047034870470348704700BF082F0020A7
:10A8E0005030002070310020014601481DF0AFBB00
:10A8F0001C0D002008B50A4814F0CAFC094814F0E1
:10A900000DFD094909484FF0FF334FF4806216F0FE
:10A9100065FE074B074A0020C3E90B20986208BD7B
:10A9200083A40400488F0400407A00201010002007
:10A93000082F00207DAC020002480022002316F000
:10A940005FB900BF1C0D002010B5054CFFF7F4FFE8
:10A9500020B1011D204615F0C5FFF7E710BD00BF6F
:10A96000A00B00200949BFF35B8F51E8003F43F083
:10A97000010241E800200028F7D1BFF35B8FDB071D
:10A9800003D4034808391DF062BB7047382F0020FC
:10A990001010002007B500230E48002201A915F071
:10A9A00071FF90B1FFF7D0FF0A480022002301A9F0
:10A9B00015F068FF38B90198042340600374FFF76D
:10A9C00093FFFFF7CFFF002001E00198406003B044
:10A9D0005DF804FBA00B0020817870B506460846A0
:10A9E000FFF75AFF0B06F578044612D5002D43D128
:10A9F000FFF7D0FF034600283ED00122A57702745E
:10AA0000032202739C60FFF76FFFBDE87040FFF701
:10AA1000A9BF4DB1012D2FD1FFF7BCFF034658B39D
:10AA2000657705740573EDE7FFF7B4FF20B3B278DF
:10AA3000124B12F0800F02F0080111D041B1D3F88F
:10AA4000A836E36001230374022303738460DAE70A
:10AA500002F00F02142101FB0233D3F80836F0E7AD
:10AA600011B1D3F8A837ECE702F00F02142101FB73
:10AA70000233D3F80837E4E770BD00BF007002402E
:10AA8000022810B511D8094B1C5CFFF783FF60B199
:10AA9000002202740472FFF727FF054B93F824305D
:10AAA0001BB1BDE81040FFF75DBF10BD80A40400DE
:10AAB000082F002010B50F49BFF35B8F01F1200371
:10AAC000002253E8000F012803D143E80024002CA2
:10AAD000F7D1BFF35B8F0BD1CC690C31204617F057
:10AAE00057FC453004D12046BDE8104017F02BBC80
:10AAF00010BD00BF082F0020F0B5064689B0142213
:10AB0000002103A819F042FF3378013B052B21D81F
:10AB1000DFE803F07A0314146A1603238DF8143067
:10AB20000024FFF737FF0346A0B1047400F10802C8
:10AB3000DDE9050182E8030018461DE00423EDE786
:10AB4000B1780846FFF7A8FE837A044623B1013B9B
:10AB5000022B43D909B0F0BD0B06F57813D5002DB3
:10AB6000F8D1FFF717FF03460028F3D00122A5779D
:10AB70000274032202739C60FFF7B6FE09B0BDE8C1
:10AB8000F040FFF7EFBE55B1012DE3D1FFF702FF13
:10AB900003460028DED0657705740573EBE7FFF701
:10ABA000F9FE07460028D5D001230374022303735E
:10ABB000846004F10C01B0781DF012F8134AE168CA
:10ABC000B2F888328B4206D95B1AA2F8883215F0A7
:10ABD0001BF93846D0E7A2F88852FAE7304609B0A8
:10ABE000BDE8F040FFF7F8BE01A815F0E7F89DF8C2
:10ABF0000530052B04D19DF8043013F0600FA9D067
:10AC0000034B059301248CE702248AE7082F0020D8
:10AC10007030002038B5002464F07F00C0B2FFF728
:10AC20003BFE013418F0C0FB082CF5D10F4D002479
:10AC3000E0B2FFF731FE036903B90561013418F092
:10AC4000B3FB082C05F14005F2D1094C04F5A470C2
:10AC500018F0AAFBD4F8783213B9064BC4F878324E
:10AC6000054818F0A1FB002038BD00BF082D0020CA
:10AC7000082F002008290020703100202DE9F04322
:10AC8000A74CDFF8A08285B00746FFF755FE10B944
:10AC900005B0BDE8F08394F82530027C00F104098A
:10ACA0003BB9002A00F085804946404615F01AFE5F
:10ACB000EBE7042AF8D8DFE812F07C000500020177
:10ACC00018014101037B8568032BEDD8DFE803F011
:10ACD000023C595E6E6908220021304619F056FE8A
:10ACE000914B9248D3F880243270D3F88424727048
:10ACF000D3F88824D3F88C1442EA01227280D3F866
:10AD00009024D3F8941442EA0122B280D3F8982414
:10AD1000D3F89C3442EA03230822F3803146EA60E8
:10AD200019F009FE2B68687A002198473378DB090F
:10AD300006D1F38823B1A4F8883215F065F8B3E79B
:10AD40000023A4F88832AFE76B7F002BACD02B7FB9
:10AD5000002BA9D000266E774FF0FF3274482E7773
:10AD60004FF0FF3318F033FB6B6901936B68CDE94B
:10AD7000023601A9687A14F045FE6D4818F029FBE7
:10AD800092E72B680121687A98478DE7AB7A6BB917
:10AD9000EB7F5BB966484FF0FF324FF0FF3318F09E
:10ADA00016FB15F061F8624818F013FB2B680221BE
:10ADB000E9E7027A042A3FF677AFDFE802F05B03A7
:10ADC0002569750014F0D2FD054600287FF46CAFAC
:10ADD00014F010FDBFF35B8F5649012351E8002F9B
:10ADE000002A03D141E800300028F7D1BFF35B8F80
:10ADF0007FF45AAF41F8105C41F8085CE069636188
:10AE0000143917F057FA4FE7002565F07F00C0B2FC
:10AE1000FFF742FD037A13B1407A15F01BFA0135B2
:10AE2000082DF2D194F850311BB194F8510115F06E
:10AE300011FA0025E8B2FFF72FFD037A13B1407A2B
:10AE400015F008FA0135082DF4D194F870321BB1D1
:10AE500094F8710215F0FEF9012014F069FD012348
:10AE600084F825302368002B3FF41EAF0021022018
:10AE7000984719E7002584F8255015F077F9FFF772
:10AE800019FE2368002B3FF40FAF29460420EFE79B
:10AE9000002B3FF409AF15F081F92368002B3FF434
:10AEA00003AF00210520E3E72268002A3FF4FCAE4F
:10AEB000002B3FF4F9AE002106209047F4E607F19D
:10AEC0000C054FF0FF334FF0FF32284618F07FFAA1
:10AED000FFF7A0FE284618F07CFA57F8283C002B14
:10AEE0003FF4E2AE00210120C2E794F870327BB15A
:10AEF000012584F8855284F88452FFF74BFD38B160
:10AF00000D4A057405738260FFF7EEFCFFF72AFD1A
:10AF100057F8283C002B3FF4C7AE00210A20A7E7D2
:10AF2000082F0020A00B0020007002400C2F0020F2
:10AF30003C2F0020282F0020703100201CF0C6FD7F
:10AF400015F014F914F04CFCFFF7FEFCFFF762FE5D
:10AF50001CF0B5FD014814F013FDA5E6F9AA0200A6
:10AF600038B51A4D95F824405CBB05F134001CF04F
:10AF7000EAFF2046FFF7DCFB2246E861012127209B
:10AF800000F0D6FC124814F0FBFC124B98421AD188
:10AF90001CF095FDFFF73EFE044610B9012385F82D
:10AFA00024300D4B1B680BB1FFF7DCFC4FF08043E6
:10AFB000D3F83834DB0702D50020FFF761FD2046C7
:10AFC00038BD0024FBE76FF00404F8E7082F0020E9
:10AFD000F9AA02000000AD0B1C0D0020074B93F8EE
:10AFE00024203AB193F82530002B0CBF6FF01200EB
:10AFF000002070476FF01200704700BF082F00203C
:10B000000F4B93F8243010B50146B3B104782046B5
:10B01000FFF742FC10B96FF0150010BD44720B79B8
:10B02000837249884160230702D44B1E0B42F2D140
:10B0300020461CF0D0FD0020EFE76FF01200ECE797
:10B04000082F0020124B93F8242010B50146CAB1F6
:10B0500093F82530B3B1FFF71FFC0446A8B1837AFB
:10B06000012B12D007D9023B012B07D96369A361D9
:10B070000020E06010BD14F0FFFEF7E7084614F072
:10B080006FFEF3E76FF01200F4E76FF01500F1E7E1
:10B09000082F002038B50E4B93F82420054682B1C6
:10B0A00093F825306BB1FFF7F7FB68B115F0080492
:10B0B0000AD1284614F076FE284615F01DF92046E0
:10B0C00038BD6FF01200FBE76FF01500F8E700BF26
:10B0D000082F002038B50C4B93F8242005460C4669
:10B0E00062B193F825304BB1FFF7D6FB48B141B1BF
:10B0F000284614F03DFE2070002038BD6FF012008D
:10B10000FBE76FF01500F8E7082F0020F8B5134FA4
:10B1100097F824300446BBB1FFF7BEFB0546B0B13B
:10B12000230705D4204614F03DFE204615F0E4F830
:10B130002E7A7EB997F8250001232B7218B120468C
:10B1400015F088F83046F8BD6FF01200FBE76FF09D
:10B150001500F8E76FF04400F5E700BF082F002066
:10B160000E4B93F8242010B5014672B193F82530A8
:10B170005BB1FFF791FB044650B1037A5BB108461F
:10B1800015F03CF80020207210BD6FF01200FBE7B4
:10B190006FF01500F8E76FF04400F5E7082F002086
:10B1A0002DE9F043DFF8DC801C4698F8243085B0A8
:10B1B000074689461646002B5DD098F82530002BAF
:10B1C00059D003065AD5FFF767FB0546002855D02E
:10B1D000037A002B52D04FF0FF334FF0FF3208F1CB
:10B1E000340018F0F4F8AB7F4BB108F1340018F0DC
:10B1F000F0F86FF00A04204605B0BDE8F08316B9F8
:10B20000EB7F03B1EE77AB7ABBB95EB1B8F80A3029
:10B210009E4207D26A68B6FBF2F302FB13630BB9D6
:10B220000123EB7714F030FE874206D014F01CFEA9
:10B23000154818F0CEF80024DDE70123AB774FF076
:10B24000000801A93846CDE90196CDF80C8014F02C
:10B25000D9FB0E4B984207D085F81E800CB1C4F87C
:10B2600000806FF0040402E00CB1266044460648FA
:10B2700018F0AFF8BFE76FF01204BCE76FF01504E9
:10B28000B9E700BF082F00203C2F00200000AD0BC5
:10B290002DE9F0411D46204B174693F824200E4619
:10B2A000002A33D093F8253083B3030631D401B993
:10B2B0007FBBFFF7F1FA044658B3037A4BB34FF064
:10B2C000FF3316484FF0FF3218F081F8E368BB42B5
:10B2D000984628BFB84646B93FB905B12B600F481C
:10B2E00018F077F80020BDE8F081A16942463046A9
:10B2F00019F021FBA3694344A361E368A3EB0803AE
:10B30000E360002DEBD0C5F80080E8E76FF0120095
:10B31000E9E76FF01500E6E7082F00203C2F00203A
:10B3200070B51E4D95F82420034682B395F825206C
:10B330006AB31B062ED4FFF7AFFA044650B3037A64
:10B3400043B34FF0FF334FF0FF3205F1340018F0F4
:10B350003EF8E368B3B9012663692677A361637F8A
:10B3600083B1FFF717FB30B905F1340018F031F85D
:10B370006FF00B0070BD067484600673FFF7B4FABB
:10B38000FFF7F0FA064818F024F80020F2E76FF013
:10B390001200EFE76FF01500ECE700BF082F002068
:10B3A0003C2F002008B5084B93F824302BB1FFF751
:10B3B00073FA28B10160002008BD6FF01200FBE7AE
:10B3C0006FF01500F8E700BF082F0020014B186050
:10B3D000704700BF082F002008B5074B93F82430B2
:10B3E00023B1FFF759FA20B1406808BD6FF0120091
:10B3F000FBE76FF01500F8E7082F0020044A1368F8
:10B40000C81A20F07F400344136016F033BA00BF1F
:10B41000A03100202DE9F843860006F1804600F1B6
:10B42000500406F58836A400A4B204F180444FF419
:10B430008037D6F84035DFF86C8021F07F4504F581
:10B4400088348740D8F80495A3EB090323F07F43A1
:10B4500029F07F42012BC6F8402502D113201CF0B1
:10B460004AFF09F10202AB1A23F07F43B3F5000F44
:10B4700088BF1546002323602368C8F8447325F06D
:10B480007F43C6F84035D8F80435994506D0EB1A05
:10B49000023B23F07F43B3F5000F01D8BDE8F883EA
:10B4A0002B46CFE700100140F8B50025104C2F4681
:10B4B000104B1E6805B1F8BDD4F80423D203FAD5A9
:10B4C000D4F84021002AF6D0C4F84051D4F84021E5
:10B4D0004FF48032C4F84823D4F84015012526B132
:10B4E0005A681F600020B047E2E71E60E3E700BF34
:10B4F000001001409431002038B50F4C00254FF466
:10B500008033C4F80855C4F804330C4B4FF40032B0
:10B51000C3F8802101212A46112000F009FA1120E8
:10B5200000F0D4F90123064AA360022023601360CF
:10B53000FFF732F9284638BD0010014000E100E075
:10B540009C310020134AB0F1FF3F14BF034613465D
:10B55000013B002B1CDD9342A8BF13460E4AD2F8D4
:10B5600004050E4A1168401A10F4000F20F07F42C3
:10B5700018BF002301321344094A0A481060002012
:10B580005060044A934294BFC9188918FFF742BF1C
:10B590000023E3E7FFFF7F0000100140A0310020FF
:10B5A00094310020FDB302004FF02002EFF311832D
:10B5B00082F31188BFF36F8F064AD2F80405064A5A
:10B5C0001268801A20F07F4083F31188BFF36F8FD9
:10B5D000704700BF00100140A0310020014B1868E7
:10B5E000704700BFDC030020F0B5082289B018F0D6
:10B5F0000AF9CB6A03930B6B04934B6B05938B6B2C
:10B600000693CB6B079313466A460C460646002703
:10B6100011461046CDE90177009718F001F8314640
:10B620000546304617F0FCFF216B0391616B0491D6
:10B63000A16B0591E16B0544CDE906171046114653
:10B6400017F0EEFF31460544304617F0E9FF054498
:10B65000206A0090606A0190A06A0290A06B069038
:10B66000E06B07903046CDE90477039717F0D8FFD9
:10B670000544606A0090A06AD4F838C00190E06A7E
:10B680000290CDF810C0606BD4F83CC00390CDE9B7
:10B6900005C0206A0790304617F0C2FF0544E06AF3
:10B6A0000090206B0190606B0290206A0690A06A67
:10B6B00007903046CDE90477039718F0DAF8236B4A
:10B6C0000093636B0193A36B0293E36B0393636A31
:10B6D0000693E36A07932D1A08233046CDE90477D1
:10B6E00018F0C7F8636B0093A36B0193E36B0293AD
:10B6F000236A0393636A0493A36ACDE90537236B36
:10B7000007932D1A0823304618F0B3F8A36B009363
:10B71000E36BCDE90137636A0393A36A0493E36A99
:10B72000CDE90537636B07932D1A0823304618F0CF
:10B73000A0F82D1A10D40D4C35B9082231462046F8
:10B7400018F06DF801280FD0082322463146304604
:10B7500018F08FF82D1AEFE7044A082331463046D7
:10B7600017F05EFF2D18F8D409B0F0BD508F04001B
:10B770000449431E0F3013F8012F8A5C1A7083426C
:10B78000F9D170478EA40400F0B5264E07460C464A
:10B790000FCE8DB001AD0FC50FCE0FC596E80700D7
:10B7A00085E807003846002F38D0002C38D0381FE5
:10B7B0002146024610344B780D781B0443EA05639A
:10B7C000CD782B438D78043143EA05238C4242F82F
:10B7D000043FF0D1144C04218A07036916D1C3F346
:10B7E0000742A55C1A0EA25C42EA0562C3F3072574
:10B7F000DBB2655DE35C42EA054242EA03220CAD3E
:10B8000021F003032B4453F82C3C534050F8042FF1
:10B81000013153402C290361DED101200DB0F0BD70
:10B820002046FBE74C8B04008EA404000A4A0B4917
:10B8300093680968C3F880100949D8674B6843F0DA
:10B8400080534B60002383F31188BFF36F8F93689D
:10B85000D3F88000704700BF1456002014A10400E4
:10B8600000ED00E00F498A684FF038001044EFF314
:10B87000098C80E8F01F202080F31188BFF36F8FC0
:10B88000094F4FF000668A6A8A603E60D06F0023DD
:10B89000D36780F3118802F1380090E8F01F8CF331
:10B8A000098870471456002004ED00E01EF0040FD4
:10B8B0000CBFEFF30880EFF30980816911F8021CD7
:10B8C0000229FFD001B518F0FFFE01BD43B2002BE5
:10B8D00008DB012200F01F0002FA00F05B09024AB7
:10B8E00042F82300704700BF00E100E043B2002BA4
:10B8F0000DDB01225B0900F01F0002FA00F020338B
:10B90000034A42F82300BFF34F8FBFF36F8F704796
:10B9100000E100E0054B420900F01F0053F822202F
:10B92000012303FA00F01040704700BF00E100E07F
:10B9300043B2002BA8BF03F1604301F10101B8BF7E
:10B94000064B4FEA4111ACBF03F5614300F00F0015
:10B95000C9B2B4BF195483F80013704714ED00E066
:10B9600008B572B6044B586A18B100225A6214F036
:10B9700065FE62B608BD00BF1456002042F8203CA8
:10B98000009B42F81C3C0A49019B42F8183C029B70
:10B9900042F8143C21F001014FF0807342F8043C5E
:10B9A00042F8081C0023203A8265C367704700BF35
:10B9B000C923040008B506460D46144600F0A0F958
:10B9C000074B9E60204685F30988002163B681F30A
:10B9D0001188BFF36F8F0022002316F0F5FC00BF23
:10B9E00014560020014910220A60704710ED00E053
:10B9F00072B6404080F31188BFF36F8FBFF34F8F53
:10BA000030BF62B6BFF36F8F704700BF72B6494058
:10BA100081F3118820BF80F3118862B6704700BFA0
:10BA200030BFFFF7FDBF00BF0E4A08B50E4B22F036
:10BA30007F029A60BFF34F8FBFF36F8FD3F88820D8
:10BA400022F47002C3F88820EFF3148323F0040378
:10BA500083F3148814F03CFE15F026FE00F022F962
:10BA600014F05AFE0060020000ED00E001B572B66D
:10BA70000B4A506A00281EBF0021516214F0DEFDFF
:10BA800062B6EFF30580A0F110004FEAC00005494F
:10BA9000014409C99847BDE801400349084700002F
:10BAA00014560020E888040089BC020018F09EFFAC
:10BAB000202080F3118808484FF40061401880F37B
:10BAC0000988EFF314800221084380F31488BFF340
:10BAD0006F8FFFF7A9FF0000209A0020EFF3088086
